:020000040800F2
:100000000050002001040008D1020008D3020008BB
:10001000D5020008D7020008D9020008000000003D
:10002000000000000000000000000000DB020008EB
:10003000DD02000800000000DF020008E102000805
:10004000490400084904000849040008490400085C
:10005000490400084904000849040008490400084C
:10006000490400084904000849040008490400083C
:100070004904000849040008E9020008490400088E
:10008000490400084904000849040008490400081C
:10009000490400084904000849040008490400080C
:1000A00049040008490400084904000849040008FC
:1000B00049040008490400084904000849040008EC
:1000C00049040008490400084904000849040008DC
:1000D00049040008F902000849040008490400081E
:1000E0004904000849040008490400080000000011
:1000F0000000000000000000000000000000000000
:0C01000000000000000000005FF808F1A3
:10010C0010B5054C237833B9044B13B10448AFF345
:10011C0000800123237010BD3C040020000000006F
:10012C006416000808B5034B1BB103490348AFF331
:10013C00008008BD00000000400400206416000888
:10014C0000B583B00A4B5A6942F001025A615B69EF
:10015C0003F001030193019B002211460E2000F0D5
:10016C00CBF90E2000F0FCF903B05DF804FB00BFE6
:10017C000010024030B589B0002404940594069414
:10018C0007941D4B9A6942F010029A619A6902F029
:10019C0010020092009A9A6942F020029A619A69C0
:1001AC0002F020020192019A9A6942F004029A61CB
:1001BC009A6902F004020292029A9A6942F00802C9
:1001CC009A619B6903F008030393039B0B4D224632
:1001DC004FF40051284600F019FC4FF400530493DF
:1001EC000123059306940223079304A9284600F0E3
:1001FC0021FB09B030BD00BF0010024000100140CF
:10020C0072B6FEE700B591B00023089309930B93E7
:10021C000C9301930293039304930593012206928A
:10022C004FF4803307930A9202220D920E934FF4EF
:10023C00E0130F9306A800F005FC80B90F2301937F
:10024C0002210291002303934FF4806204920593E0
:10025C0001A800F037FE20B911B05DF804FBFFF7E0
:10026C00CFFFFFF7CDFF08B500F010F9FFF7CAFF7D
:10027C00FFF780FFFFF764FF00F042F8FEE7000095
:10028C0082B00E4B9A6942F001029A619A6902F0AF
:10029C0001020092009ADA6942F08052DA61DB695D
:1002AC0003F080530193019B054A536823F0E063EC
:1002BC0043F00073536002B0704700BF001002405F
:1002CC0000000140FEE7FEE7FEE7FEE7FEE77047B1
:1002DC007047704708B500F0EBF808BD08B5024848
:1002EC0000F006FA08BD00BF5804002008B502480B
:1002FC0001F006F808BD00BF9C0400207047000008
:10030C0008B50A480A4B03604FF4E13343600023FD
:10031C008360C36003610C2242618361C36100F09E
:10032C003DFF00B908BDFFF76BFFFBE79C04002005
:10033C000038014070B586B00023029303930493F8
:10034C0005930268274B9A4201D006B070BD044653
:10035C0003F558439A6942F480429A619A6902F40F
:10036C0080420092009A9A6942F004029A619B6959
:10037C0003F004030193019B4FF4007302930223D7
:10038C00039303230593184E02A9304600F052FA4A
:10039C004FF48063029300250395049502A930461F
:1003AC0000F048FA1148124B03601023436085603B
:1003BC008023C3600561456185614FF48053C3613F
:1003CC0000F0F2F858B9094B63635C6200221146E5
:1003DC00252000F091F8252000F0C2F8B5E7FFF7D2
:1003EC000FFFF0E7003801400008014058040020DE
:1003FC00440002400C480D490D4A002302E0D45839
:10040C00C4500433C4188C42F9D30A4A0A4C002352
:10041C0001E013600432A242FBD3FFF76FFF01F03F
:10042C0069F8FFF720FF7047000000203C04002013
:10043C00B81600083C04002008050020FEE7000068
:10044C0010B504460E4B18784FF47A73B3FBF0F3E7
:10045C000C4A1068B0FBF3F000F090F868B90F2C60
:10046C0001D901200AE0002221464FF0FF3000F0B4
:10047C0043F8054B1C60002000E0012010BD00BFBC
:10048C0004000020000000200800002008B5074AE6
:10049C00136843F010031360032000F01BF80020D6
:1004AC00FFF7CEFFFFF7ECFE002008BD0020024056
:1004BC00034A1168034B1B780B441360704700BF51
:1004CC00E004002004000020014B1868704700BFB6
:1004DC00E0040020074AD36823F4E0631B041B0CE0
:1004EC00000200F4E060184340F0BF6040F40030BC
:1004FC00D060704700ED00E030B4174BDB68C3F3FD
:10050C000223C3F10704042C28BF04241D1D062D4F
:10051C0018D9033B4FF0FF3505FA04F421EA040126
:10052C00994005FA03F322EA0303194300280BDB75
:10053C000901C9B200F1604000F5614080F8001378
:10054C0030BC70470023E5E700F00F000901C9B289
:10055C00024B1954F4E700BF00ED00E014ED00E08D
:10056C00002807DB00F01F02400901239340024AD8
:10057C0042F82030704700BF00E100E00138B0F1D4
:10058C00807F0AD2064B5860064AF02182F823106D
:10059C000020986007221A6070470120704700BF46
:1005AC0010E000E000ED00E060B310B4024601681A
:1005BC00154B0B441548A0FB03031B099B0013644C
:1005CC00134BD363022382F82130086820F47F5048
:1005DC0020F03000536894682343D4682343146993
:1005EC0023435469234394692343D469234303432A
:1005FC000B6000209063012382F8213082F82000E8
:10060C0010BC704701207047F8FFFDBFCDCCCCCC9F
:10061C000000024090F82130022B06D004238363A3
:10062C00002380F82030012070470268136823F003
:10063C000E0313600268136823F001031360036C4C
:10064C00C16B012202FA03F34B6080F821200023D6
:10065C0080F820301846704708B590F82130022BEE
:10066C0003D004238363012008BD0268136823F0C0
:10067C000E0313600268136823F001031360036810
:10068C00194A934214D0143293421FD0143293421D
:10069C001ED0143293421ED0143293421ED0143208
:1006AC00934202D04FF0807203E04FF4801200E0CE
:1006BC0001220E4B5A60012380F82130002380F870
:1006CC002030436B6BB198470020CDE71022F0E748
:1006DC004FF48072EDE74FF48052EAE74FF480322A
:1006EC00E7E70020C0E700BF08000240000002401E
:1006FC0038B5C36B1A6804682568016C04238B40F9
:10070C00134235D015F0040F32D0236813F0200FAC
:10071C0003D1236823F0040323600368434A934204
:10072C0014D01432934218D01432934217D014328E
:10073C00934217D01432934217D01432934202D002
:10074C004FF0806203E04FF4800200E00422384B4B
:10075C005A60C36A03B1984738BD4022F7E74FF49B
:10076C008062F4E74FF48042F1E74FF48022EEE729
:10077C0002238B4013423CD015F0020F39D0236872
:10078C0013F0200F06D1236823F00A032360012302
:10079C0080F821300368254A934214D014329342D6
:1007AC001CD0143293421BD0143293421BD01432FF
:1007BC0093421BD01432934202D04FF0007203E0EC
:1007CC004FF4001200E00222194B5A60002380F80B
:1007DC002030836A002BBFD09847BDE72022F3E777
:1007EC004FF40072F0E74FF40052EDE74FF4003293
:1007FC00EAE7082303FA01F11142ADD015F0080F16
:10080C00AAD0236823F00E032360026CC16B012372
:10081C0003FA02F24A60836380F82130002380F8E7
:10082C002030036B002B97D0984795E708000240C7
:10083C0000000240F0B482B000263246A2E0002D47
:10084C005AD0012D00D1CE68FF2B69D88446FF2BDE
:10085C0069D89500DCF800400F27AF4024EA070464
:10086C0006FA05F52C43CCF800404C6814F0805F78
:10087C0000F087805F4CA56945F00105A561A4696E
:10088C0004F001040194019C9508AF1C5A4C54F8D7
:10089C00274002F00307BF004FF00F0C0CFA07FCC7
:1008AC0024EA0C0C554CA04243D004F58064A042C1
:1008BC0000F0818004F58064A0427ED004F5806451
:1008CC00A04234D0042435E04D4FBD4214D00BD996
:1008DC004C4FBD4210D007F58037BD420CD0A7F568
:1008EC008017BD42B0D107E0A7F58017BD4203D0F9
:1008FC0007F58037BD42A7D18D687DB1012D08D099
:10090C0044610826A0E7CE6808369DE7CE680C3611
:10091C009AE70461082697E7002695E7042693E7F3
:10092C0000F1040C93E7A2F10805AD0092E7032453
:10093C0000E00024BC4044EA0C0402352E4F47F87A
:10094C0025404C6814F4803F39D02F4D2C681C4343
:10095C002C604C6814F4003F37D02B4D6C681C4352
:10096C006C604C6814F4801F35D0274DAC681C4368
:10097C00AC604C6814F4001F33D0234DEC68234357
:10098C00EB6001320B6833FA02F430D0012494404E
:10099C0023409C42F5D14D68122DB7D094D8022D2E
:1009AC00B1D07FF64CAF032DB6D0112D7FF44CAFE8
:1009BC00CE68043648E70124BCE70224BAE7124D9E
:1009CC002C6824EA03042C60C3E70F4D6C6824EAFE
:1009DC0003046C60C5E70C4DAC6824EA0304AC60FE
:1009EC00C7E7094DEC6824EA0303EB60C9E702B0E2
:1009FC00F0BC7047001002400000014000080140AC
:100A0C0000002110000031100004014012B909044B
:100A1C00016170470161704782B0084B1B68084A3E
:100A2C00A2FB03235B0A00FB03F0019000BF019BB8
:100A3C005A1E0192002BF9D102B070470000002021
:100A4C00D34D6210002800F0F58170B582B00446D9
:100A5C00036813F0010F2CD0AB4B5B6803F00C0355
:100A6C00042B1DD0A84B5B6803F00C03082B12D091
:100A7C006368B3F5803F41D0002B55D103F180431F
:100A8C0003F504331A6822F480321A601A6822F4CF
:100A9C0080221A6037E09C4B5B6813F4803FE7D0F0
:100AAC00994B1B6813F4003F03D06368002B00F0D4
:100ABC00C381236813F0020F76D0934B5B6813F05D
:100ACC000C0F5FD0904B5B6803F00C03082B54D0D9
:100ADC002369002B00F08A808C4B01221A60FFF7EF
:100AEC00F3FC0546884B1B6813F0020F75D1FFF71A
:100AFC00EBFC401B0228F5D90320A0E1824A1368C5
:100B0C0043F480331360636843B3FFF7DDFC0546A1
:100B1C007D4B1B6813F4003FCBD1FFF7D5FC401B7A
:100B2C006428F5D903208AE1B3F5A02F09D0764BC0
:100B3C001A6822F480321A601A6822F480221A6031
:100B4C00E1E703F18043A3F53C331A6842F48022B9
:100B5C001A601A6842F480321A60D4E7FFF7B4FCCA
:100B6C000546694B1B6813F4003FA2D0FFF7ACFCA1
:100B7C00401B6428F5D9032061E1634B5B6813F4D7
:100B8C00803FA5D1604B1B6813F0020F04D0236982
:100B9C00012B01D0012052E15B4A136823F0F803CA
:100BAC00616943EAC1031360236813F0080F32D064
:100BBC00A369002B5BD0564B01221A60FFF784FC13
:100BCC000546514B5B6A13F0020F21D1FFF77CFCF9
:100BDC00401B0228F5D9032031E14B4A136823F05E
:100BEC00F803616943EAC1031360DDE7474B002258
:100BFC001A60FFF769FC0546434B1B6813F0020FA4
:100C0C00D2D0FFF761FC401B0228F5D9032016E176
:100C1C000120FFF701FF236813F0040F00F0988008
:100C2C00394BDB6913F0805F33D1374BDA6942F013
:100C3C008052DA61DB6903F080530193019B01253B
:100C4C00344B1B6813F4807F25D0E368012B36D01E
:100C5C00002B4CD103F1804303F504331A6A22F0C4
:100C6C0001021A621A6A22F004021A622CE0284B62
:100C7C0000221A60FFF728FC0546234B5B6A13F031
:100C8C00020FC8D0FFF720FC401B0228F5D9032027
:100C9C00D5E00025D4E71F4A136843F48073136032
:100CAC00FFF712FC06461B4B1B6813F4807FCCD15C
:100CBC00FFF70AFC801B6428F5D90320BFE0124A19
:100CCC00136A43F001031362E3687BB3FFF7FCFB89
:100CDC0006460D4B1B6A13F0020F38D1FFF7F4FBDD
:100CEC00801B41F288339842F3D90320A7E0052BEF
:100CFC0012D0054B1A6A22F001021A621A6A22F00B
:100D0C0004021A62E0E700BF0010024000004242F9
:100D1C0080044242007000404C4B1A6A42F00402BC
:100D2C001A621A6A42F001021A62CDE7FFF7CCFB95
:100D3C000646464B1B6A13F0020F08D0FFF7C4FBA4
:100D4C00801B41F288339842F3D9032077E0E5B950
:100D5C00E369002B72D03D4A526802F00C02082A5B
:100D6C0056D0022B17D03A4B00221A60FFF7ACFB7F
:100D7C000446364B1B6813F0007F47D0FFF7A4FBEB
:100D8C00001B0228F5D9032059E0304AD36923F01F
:100D9C008053D361DCE72E4B00221A60FFF794FBE3
:100DAC0005462A4B1B6813F0007F06D0FFF78CFB1F
:100DBC00401B0228F5D9032041E0236AB3F5803F9C
:100DCC001AD022494B6823F47413226A606A0243D6
:100DDC0013434B601E4B01221A60FFF775FB044650
:100DEC001A4B1B6813F0007F0ED1FFF76DFB001B35
:100DFC000228F5D9032022E0144A536823F4003367
:100E0C00A1680B435360DCE7002018E0002016E0DB
:100E1C00012B16D00D4B5B6803F48031226A914292
:100E2C0001D001200BE003F47013626A93420AD0E4
:100E3C00012004E001207047012000E0002002B0F6
:100E4C0070BD0120FBE70020F9E700BF0010024055
:100E5C006000424210B487B0164C94E80F000DF1BC
:100E6C00180C0CE90F00238AADF80430124B5B68A8
:100E7C0003F00C02082A1AD1C3F38342624412F81D
:100E8C00102C13F4803F05D10C4800FB02F007B086
:100E9C0010BC7047084B5B68C3F34043634413F8C2
:100EAC00143C074800FB02F0B0FBF3F0EFE70448FA
:100EBC00EDE700BF7C1600080010024000093D0061
:100ECC0000127A00002800F0A38070B50446524B43
:100EDC001B6803F007038B420CD24F4A136823F0B4
:100EEC0007030B431360136803F007038B4201D015
:100EFC00012070BD236813F0020F17D013F0040FFC
:100F0C0004D0464A536843F4E0635360236813F0FB
:100F1C00080F04D0414A536843F4605353603F4A6E
:100F2C00536823F0F003A068034353600D46236815
:100F3C0013F0010F31D06368012B20D0022B25D088
:100F4C00364A126812F0020F64D034494A6822F013
:100F5C00030213434B60FFF7B7FA06462F4B5B684F
:100F6C0003F00C036268B3EB820F16D0FFF7ACFAF8
:100F7C00801B41F288339842F0D90320B9E7274A05
:100F8C00126812F4003FE0D10120B2E7234A126844
:100F9C0012F0007FD9D10120ABE71F4B1B6803F087
:100FAC000703AB420CD91C4A136823F007032B43ED
:100FBC001360136803F00703AB4201D0012098E7DC
:100FCC00236813F0040F06D0144A536823F4E0632B
:100FDC00E1680B435360236813F0080F07D00F4AE6
:100FEC00536823F46053216943EAC1035360FFF74C
:100FFC0031FF0A4B5B68C3F30313094AD35CD84037
:10100C00084B1860084B1868FFF71AFA002070E7B5
:10101C000120704701206CE70020024000100240C4
:10102C00901600080000002008000020014B1868F2
:10103C00704700BF0000002008B5FFF7F7FF044B16
:10104C005B68C3F30223034AD35CD84008BD00BFDE
:10105C0000100240A016000808B5FFF7E7FF044B8C
:10106C005B68C3F3C223034AD35CD84008BD00BFFE
:10107C0000100240A01600080268D36823F4907395
:10108C00D3600268536923F001035361036B012B96
:10109C0005D0202380F83E3000230363704702689C
:1010AC00D36823F01003D360F3E790F83D30DBB244
:1010BC00212B27D18368B3F5805F16D0036A5A1CA5
:1010CC0002621A7803685A60C38C013B9BB2C384DA
:1010DC00D3B90268D36823F08003D3600268D36865
:1010EC0043F04003D360002070470369002BE5D127
:1010FC00036A1B880268C3F308035360036A023354
:10110C000362E1E7022070470020704738B50446BF
:10111C000268136923F44053C1680B43136183685D
:10112C000269134342691A430168CB6823F4B05334
:10113C0023F00C031343CB600268536923F4407310
:10114C0081690B4353610268124B9A421FD0FFF71F
:10115C0073FF00EB800000EB800063689B00B0FB2A
:10116C00F3F00D4DA5FB00325109642202FB110274
:10117C0013013233A5FB03235B0903F0F00202EBEE
:10118C00011203F00F03216813448B6038BDFFF785
:10119C0063FFDEE7003801401F85EB5158B310B5F3
:1011AC00044690F83D300BB3242384F83D3022687C
:1011BC00D36823F40053D3602046FFF7A7FF2268BF
:1011CC00136923F4904313612268536923F02A03B3
:1011DC0053612268D36843F40053D3600020206429
:1011EC00202384F83D3084F83E3010BD80F83C302C
:1011FC00FFF7A0F8D8E701207047704708B50168E1
:10120C00CB6823F04003CB60202380F83D30FFF700
:10121C00F4FF002008BD7047704708B5406A0023F2
:10122C00C385C384FFF7F8FF08BD704790F83E30C4
:10123C00DBB2222B60D18368B3F5805F45D0826A24
:10124C00B3F5805F04D0002B4CD10369002B49D13E
:10125C0003685B681370836A01338362C38D013B3F
:10126C009BB2C385002B49D100B583B00268D3680B
:10127C0023F02003D3600268D36823F48073D36017
:10128C000268536923F001035361202380F83E3038
:10129C00036B012B2CD1002303630268D36823F06A
:1012AC001003D36003681A6812F0100F06D00022E6
:1012BC0001921A6801925B680193019B818DFFF783
:1012CC00B4FF002003B05DF804FB0269002AB6D11C
:1012DC00826A03685B68C3F308031380836A023372
:1012EC008362BBE703685B6803F07F031370B2E7AC
:1012FC00FFF791FF0020E5E70220704700207047C0
:10130C0030B583B0044602681368D068516913F095
:10131C000F0505D113F0200F02D010F0200F56D17D
:10132C00002D6AD011F0010102D110F4907F64D02D
:10133C0013F0010F06D010F4807F03D0226C42F022
:10134C000102226413F0040F04D019B1226C42F094
:10135C000202226413F0020F04D019B1226C42F085
:10136C000402226413F0080F07D010F0200F00D1F4
:10137C0019B1226C42F008022264226C002A4BD074
:10138C0013F0200F02D010F0200F24D123685B69DA
:10139C0003F04003226C12F0080F00D13BB320463F
:1013AC00FFF76AFE23685A6912F0400F1BD05A6986
:1013BC0022F040025A61A36B8BB14D4A5A63A06B69
:1013CC00FFF74AF940B3A06B436B984724E02046E3
:1013DC00FFF72CFF20E02046FFF728FFD6E720463A
:1013EC00FFF71AFF18E02046FFF716FF14E020461F
:1013FC00FFF712FF002323640EE0216B01290DD0AF
:10140C0013F0800F02D010F0800F69D113F0400F51
:10141C0002D010F0400F67D103B030BD13F0100FA5
:10142C00EED010F0100FEBD0002301931368019352
:10143C0053680193019B536913F0400F2FD0A16B9C
:10144C000B685B689BB2002BE6D0A08D9842E3D969
:10145C00E3858B69202B1AD0D36823F48073D36077
:10146C002268536923F0010353612268536923F006
:10147C0040035361202384F83E3000232363226809
:10148C00D36823F01003D360A06BFFF7C3F8A18DD2
:10149C00E38DC91A89B22046FFF7C7FEBCE7A18DC0
:1014AC00E38DC91A89B2E38D9BB2002BB4D000290D
:1014BC00B2D0D36823F49073D3602268536923F0BD
:1014CC0001035361202384F83E30002323632268F8
:1014DC00D36823F01003D3602046FFF7A6FE9BE7EA
:1014EC002046FFF7E2FD97E72046FFF787FE93E7DC
:1014FC002712000870B50D4E0D4D761BB61006D098
:10150C000024013455F8043B9847A642F9D1094E02
:10151C00094D00F0A1F8761BB61006D0002401345A
:10152C0055F8043B9847A642F9D170BDAC1600089B
:10153C00AC160008B4160008AC160008024B13B128
:10154C00024800F005B8704700000000691500085B
:10155C00002301461A46184600F01EB838B50A4C4E
:10156C000A4D641BA4100AD004F18043013B05EB27
:10157C008305013C55F804399847002CF9D1BDE896
:10158C00384000F06FB800BFB8160008B416000859
:10159C00704700BF704700BF2DE9F8432B4D06463E
:1015AC00286898460F469146FFF7F2FF284B1C68B7
:1015BC00D4F84831002B3DD05A681F2A0DDC02F1BB
:1015CC00010C16BB0232C3F804C0286843F8227021
:1015DC00FFF7E0FF0020BDE8F8831E4B7BB34FF410
:1015EC00C870AFF30080034648B30020D4F848110C
:1015FC004FF0010CC3E900100246C4F84831C3F89F
:10160C008801C3F88C01002EDCD0012103EB82048D
:10161C00C4F88890D3F8880191400843022EC3F88F
:10162C008801C4F80881CDD1D3F88C010143C3F8EB
:10163C008C11C7E704F5A673C4F84831BCE72868D9
:10164C00FFF7A8FF4FF0FF30C5E700BF38040020BC
:10165C00A816000800000000F8B500BFF8BC08BCD4
:10166C009E467047F8B500BFF8BC08BC9E46704754
:10167C0002030405060708090A0B0C0D0E0F1010C7
:10168C000102000000000000000000000102030441
:10169C0006070809000000000102030410000020E6
:0816AC00491500083101000896
:0416B4000D0100081C
:1016B8000024F400010000001000000000000000F9
:1016C80000000000FC02002064030020CC0300207E
:1016D8000000000000000000000000000000000002
:1016E80000000000000000000000000000000000F2
:1016F80000000000000000000000000000000000E2
:1017080000000000000000000000000000000000D1
:1017180000000000000000000000000000000000C1
:1017280000000000000000000000000000000000B1
:1017380000000000000000000000000000000000A1
:101748000000000000000000000000000000000091
:101758000000000000000000000000000000000081
:101768000000000000000000010000000000000070
:101778000E33CDAB34126DE6ECDE05000B00000035
:101788000000000000000000000000000000000051
:101798000000000000000000000000000000000041
:1017A8000000000000000000000000000000000031
:1017B8000000000000000000000000000000000021
:0C1AE8000000000000000000E4040020EA
:0400000508000401EA
:00000001FF
