:020000040800F2
:10000000005000209D190008D5170008D7170008D8
:10001000D9170008DB170008DD17000800000000F2
:10002000000000000000000000000000DF170008D2
:10003000E117000800000000E3170008E5170008BA
:10004000E5190008E5190008E5190008E519000898
:10005000E5190008E5190008E5190008E519000888
:10006000E5190008E5190008E5190008E519000878
:10007000E5190008E5190008ED170008E519000862
:10008000E5190008E5190008E5190008E519000858
:10009000E5190008E5190008E5190008E519000848
:1000A000E5190008E5190008E5190008E519000838
:1000B000E5190008E5190008E5190008E519000828
:1000C000E5190008E5190008E5190008E519000818
:1000D000E5190008FD170008E5190008E5190008F2
:1000E000E5190008E5190008E519000800000000FE
:1000F0000000000000000000000000000000000000
:0C01000000000000000000005FF808F1A3
:1001100010B5054C237833B9044B13B10448AFF341
:1001200000800123237010BDF809002000000000AA
:100130007C9B000808B5034B1BB103490348AFF390
:10014000008008BD00000000FC0900207C9B000826
:1001500081F0004102E000BF83F0004330B54FEA78
:1001600041044FEA430594EA050F08BF90EA020FE5
:100170001FBF54EA000C55EA020C7FEA645C7FEA78
:10018000655C00F0E2804FEA5454D4EB5555B8BF9B
:100190006D420CDD2C4480EA020281EA030382EA0C
:1001A000000083EA010180EA020281EA0303362D9E
:1001B00088BF30BD11F0004F4FEA01314FF4801C71
:1001C0004CEA113102D0404261EB410113F0004F83
:1001D0004FEA03334CEA133302D0524263EB43033A
:1001E00094EA050F00F0A780A4F10104D5F1200ED8
:1001F0000DDB02FA0EFC22FA05F2801841F1000133
:1002000003FA0EF2801843FA05F359410EE0A5F106
:1002100020050EF1200E012A03FA0EFC28BF4CF037
:10022000020C43FA05F3C01851EBE37101F00045ED
:1002300007D54FF0000EDCF1000C7EEB00006EEBFA
:100240000101B1F5801F1BD3B1F5001F0CD3490884
:100250005FEA30004FEA3C0C04F101044FEA4452DB
:1002600012F5800F80F09A80BCF1004F08BF5FEA62
:10027000500C50F1000041EB045141EA050130BD42
:100280005FEA4C0C404141EB010111F4801FA4F1E5
:100290000104E9D191F0000F04BF01460020B1FA3A
:1002A00081F308BF2033A3F10B03B3F120020CDA72
:1002B0000C3208DD02F1140CC2F10C0201FA0CF050
:1002C00021FA02F10CE002F11402D8BFC2F1200CB5
:1002D00001FA02F120FA0CFCDCBF41EA0C0190406B
:1002E000E41AA2BF01EB0451294330BD6FEA0404B4
:1002F0001F3C1CDA0C340EDC04F11404C4F120029F
:1003000020FA04F001FA02F340EA030021FA04F3B0
:1003100045EA030130BDC4F10C04C4F1200220FA07
:1003200002F001FA04F340EA0300294630BD21FA45
:1003300004F0294630BD94F0000F83F4801306BF0B
:1003400081F480110134013D4EE77FEA645C18BFFF
:100350007FEA655C29D094EA050F08BF90EA020F96
:1003600005D054EA000C04BF1946104630BD91EA8E
:10037000030F1EBF0021002030BD5FEA545C05D191
:100380004000494128BF41F0004130BD14F58004D0
:100390003CBF01F5801130BD01F0004545F0FE4144
:1003A00041F470014FF0000030BD7FEA645C1ABF79
:1003B000194610467FEA655C1CBF0B46024650EAB0
:1003C000013406BF52EA033591EA030F41F40021DC
:1003D00030BD00BF90F0000F04BF0021704730B562
:1003E0004FF4806404F132044FF000054FF0000137
:1003F00050E700BF90F0000F04BF0021704730B5F8
:100400004FF4806404F1320410F0004548BF4042CC
:100410004FF000013EE700BF42004FEAE2014FEA21
:1004200031014FEA02701FBF12F07F4393F07F4FFC
:1004300081F06051704732F07F4208BF704793F0FF
:100440007F4F04BF41F40021704730B54FF4607412
:1004500001F0004521F000411CE700BF50EA010215
:1004600008BF704730B54FF000050AE050EA0102BE
:1004700008BF704730B511F0004502D5404261EB2E
:1004800041014FF4806404F132045FEA915C3FF46F
:10049000D8AE4FF003025FEADC0C18BF03325FEA0C
:1004A000DC0C18BF033202EBDC02C2F1200300FABD
:1004B00003FC20FA02F001FA03FE40EA0E0021FAE2
:1004C00002F11444BDE600BF70B54FF0FF0C4CF4D0
:1004D000E06C1CEA11541DBF1CEA135594EA0C0F82
:1004E00095EA0C0F00F0DEF82C4481EA030621EABD
:1004F0004C5123EA4C5350EA013518BF52EA0335F8
:1005000041F4801143F4801338D0A0FB02CE4FF0A9
:100510000005E1FB02E506F00042E0FB03E54FF0D9
:100520000006E1FB03569CF0000F18BF4EF0010ED1
:10053000A4F1FF04B6F5007F64F5407404D25FEACD
:100540004E0E6D4146EB060642EAC62141EA555180
:100550004FEAC52040EA5E504FEACE2EB4F1FD0CC2
:1005600088BFBCF5E06F1ED8BEF1004F08BF5FEA40
:10057000500E50F1000041EB045170BD06F00046F2
:1005800046EA010140EA020081EA0301B4EB5C049F
:10059000C2BFD4EB0C0541EA045170BD41F4801197
:1005A0004FF0000E013C00F3AB8014F1360FDEBFBC
:1005B000002001F0004170BDC4F10004203C35DA98
:1005C0000C341BDC04F11404C4F1200500FA05F31B
:1005D00020FA04F001FA05F240EA020001F00042BC
:1005E00021F0004110EBD37021FA04F642EB060132
:1005F0005EEA430E08BF20EAD37070BDC4F10C045C
:10060000C4F1200500FA04F320FA05F001FA04F21F
:1006100040EA020001F0004110EBD37041F100010B
:100620005EEA430E08BF20EAD37070BDC4F1200516
:1006300000FA05F24EEA020E20FA04F301FA05F27E
:1006400043EA020321FA04F001F0004121FA04F226
:1006500020EA020000EBD3705EEA430E08BF20EAF6
:10066000D37070BD94F0000F0FD101F00046400030
:1006700041EB010111F4801F08BF013CF7D041EAB2
:10068000060195F0000F18BF704703F000465200B6
:1006900043EB030313F4801F08BF013DF7D043EA87
:1006A0000603704794EA0C0F0CEA135518BF95EA3D
:1006B0000C0F0CD050EA410618BF52EA4306D1D1C4
:1006C00081EA030101F000414FF0000070BD50EAE3
:1006D000410606BF1046194652EA430619D094EA6D
:1006E0000C0F02D150EA013613D195EA0C0F05D157
:1006F00052EA03361CBF104619460AD181EA0301AB
:1007000001F0004141F0FE4141F470014FF0000062
:1007100070BD41F0FE4141F4780170BD70B54FF0FD
:10072000FF0C4CF4E06C1CEA11541DBF1CEA13557D
:1007300094EA0C0F95EA0C0F00F0A7F8A4EB05045F
:1007400081EA030E52EA03354FEA013100F0888056
:100750004FEA03334FF0805545EA131343EA12631F
:100760004FEA022245EA111545EA10654FEA0026D4
:100770000EF000419D4208BF964244F1FD0404F58D
:10078000407402D25B084FEA3202B61A65EB0305E9
:100790005B084FEA32024FF480104FF4002CB6EBA6
:1007A000020E75EB030E22BFB61A754640EA0C0026
:1007B0005B084FEA3202B6EB020E75EB030E22BF66
:1007C000B61A754640EA5C005B084FEA3202B6EBA7
:1007D000020E75EB030E22BFB61A754640EA9C0066
:1007E0005B084FEA3202B6EB020E75EB030E22BF36
:1007F000B61A754640EADC0055EA060E18D04FEAF4
:10080000051545EA16754FEA06164FEAC30343EA93
:1008100052734FEAC2025FEA1C1CC0D111F4801F60
:100820000BD141EA00014FF000004FF0004CB6E759
:1008300011F4801F04BF01430020B4F1FD0C88BFF8
:10084000BCF5E06F3FF6AFAEB5EB030C04BFB6EB03
:10085000020C5FEA500C50F1000041EB045170BDF6
:100860000EF0004E4EEA113114EB5C04C2BFD4EB23
:100870000C0541EA045170BD41F480114FF0000EA7
:10088000013C90E645EA060E8DE60CEA135594EA23
:100890000C0F08BF95EA0C0F3FF43BAF94EA0C0F26
:1008A0000AD150EA01347FF434AF95EA0C0F7FF49B
:1008B00025AF104619462CE795EA0C0F06D152EAEF
:1008C00003353FF4FDAE1046194622E750EA4106D3
:1008D00018BF52EA43067FF4C5AE50EA41047FF4E4
:1008E0000DAF52EA43057FF4EBAE12E74FEA410247
:1008F000B2F1E04324BFB3F5001CDCF1FE5C0DD97E
:1009000001F0004C4FEAC0024CEA5070B2F1004FC7
:1009100040EB830008BF20F00100704711F0804FCA
:1009200021D113F13872BCBF01F00040704741F48F
:1009300080114FEA5252C2F11802C2F1200C10FA93
:100940000CF320FA02F018BF40F001004FEAC12377
:100950004FEAD32303FA0CFC40EA0C0023FA02F31B
:100960004FEA4303CCE77FEA625307D150EA0133F1
:100970001EBF4FF0FE4040F44000704701F00040C1
:1009800040F0FE4040F40000704700BF80F000409F
:1009900002E000BF81F0004142001FBF5FEA410357
:1009A00092EA030F7FEA226C7FEA236C6AD04FEA57
:1009B0001262D2EB1363C1BFD2184140484041409C
:1009C000B8BF5B42192B88BF704710F0004F40F44E
:1009D000000020F07F4018BF404211F0004F41F46A
:1009E000000121F07F4118BF494292EA030F3FD036
:1009F000A2F1010241FA03FC10EB0C00C3F1200349
:100A000001FA03F100F0004302D5494260EB4000D7
:100A1000B0F5000F13D3B0F1807F06D340084FEA42
:100A2000310102F10102FE2A51D2B1F1004F40EB37
:100A3000C25008BF20F0010040EA0300704749009F
:100A400040EB000010F4000FA2F10102EDD1B0FA6A
:100A500080FCACF1080CB2EB0C0200FA0CF0AABF5F
:100A600000EBC25052421843BCBFD04018437047FD
:100A700092F0000F81F4000106BF80F40000013203
:100A8000013BB5E74FEA41037FEA226C18BF7FEADA
:100A9000236C21D092EA030F04D092F0000F08BF1C
:100AA0000846704790EA010F1CBF0020704712F003
:100AB0007F4F04D1400028BF40F00040704712F142
:100AC00000723CBF00F50000704700F0004343F0A7
:100AD000FE4040F4000070477FEA226216BF0846DD
:100AE0007FEA23630146420206BF5FEA412390EAA0
:100AF000010F40F4800070474FF0000304E000BF96
:100B000010F0004348BF40425FEA000C08BF704746
:100B100043F0964301464FF000001CE050EA01020A
:100B200008BF70474FF000030AE000BF50EA01021F
:100B300008BF704711F0004302D5404261EB41010C
:100B40005FEA010C02BF84460146002043F0B64331
:100B500008BFA3F18053A3F50003BCFA8CF2083A56
:100B6000A3EBC25310DB01FA02FC634400FA02FC5F
:100B7000C2F12002BCF1004F20FA02F243EB020066
:100B800008BF20F00100704702F1200201FA02FCC8
:100B9000C2F1200250EA4C0021FA02F243EB0200BB
:100BA00008BF20EADC7070474FF0FF0C1CEAD052FF
:100BB0001EBF1CEAD15392EA0C0F93EA0C0F6FD0C0
:100BC0001A4480EA010C400218BF5FEA41211ED09E
:100BD0004FF0006343EA501043EA5111A0FB01318A
:100BE0000CF00040B1F5000F3EBF490041EAD3715F
:100BF0005B0040EA010062F17F02FD2A1DD8B3F1DB
:100C0000004F40EBC25008BF20F00100704790F049
:100C1000000F0CF0004C08BF49024CEA502040EA9B
:100C200051207F3AC2BFD2F1FF0340EAC250704761
:100C300040F400004FF00003013A5DDC12F1190F9F
:100C4000DCBF00F000407047C2F10002410021FA11
:100C500002F1C2F1200200FA02FC5FEA310040F129
:100C6000000053EA4C0308BF20EADC70704792F0A2
:100C7000000F00F0004C02BF400010F4000F013ADA
:100C8000F9D040EA0C0093F0000F01F0004C02BFD5
:100C9000490011F4000F013BF9D041EA0C018FE744
:100CA0000CEAD15392EA0C0F18BF93EA0C0F0AD04A
:100CB00030F0004C18BF31F0004CD8D180EA010070
:100CC00000F00040704790F0000F17BF90F0004F09
:100CD000084691F0000F91F0004F14D092EA0C0FEB
:100CE00001D142020FD193EA0C0F03D14B0218BF7E
:100CF000084608D180EA010000F0004040F0FE40C4
:100D000040F40000704740F0FE4040F4400070475F
:100D10004FF0FF0C1CEAD0521EBF1CEAD15392EADE
:100D20000C0F93EA0C0F69D0A2EB030280EA010CCE
:100D300049024FEA402037D04FF0805343EA111167
:100D400043EA10130CF000408B4238BF5B0042F1C5
:100D50007D024FF4000C8B4224BF5B1A40EA0C006A
:100D6000B3EB510F24BFA3EB510340EA5C00B3EB9C
:100D7000910F24BFA3EB910340EA9C00B3EBD10F8A
:100D800024BFA3EBD10340EADC001B0118BF5FEADC
:100D90001C1CE0D1FD2A3FF650AF8B4240EBC25005
:100DA00008BF20F0010070470CF0004C4CEA5020C6
:100DB0007F32C2BFD2F1FF0340EAC250704740F415
:100DC00000004FF00003013A37E792F0000F00F007
:100DD000004C02BF400010F4000F013AF9D040EA85
:100DE0000C0093F0000F01F0004C02BF490011F419
:100DF000000F013BF9D041EA0C0195E70CEAD15311
:100E000092EA0C0F08D142027FF47DAF93EA0C0FF7
:100E10007FF470AF084676E793EA0C0F04D14B02DB
:100E20003FF44CAF08466EE730F0004C18BF31F08D
:100E3000004CCAD130F000427FF45CAF31F0004387
:100E40007FF43CAF5FE700BF4FF0FF3C06E000BF20
:100E50004FF0010C02E000BF4FF0010C4DF804CD43
:100E60004FEA40024FEA41037FEA226C18BF7FEA53
:100E7000236C11D001B052EA530C18BF90EA010F55
:100E800058BFB2EB030088BFC81738BF6FEAE170E4
:100E900018BF40F0010070477FEA226C02D15FEA80
:100EA000402C05D17FEA236CE4D15FEA412CE1D0EC
:100EB0005DF8040B704700BF844608466146FFE7B3
:100EC0000FB5FFF7C9FF002848BF10F1000F0FBD95
:100ED0004DF808EDFFF7F4FF0CBF012000205DF88E
:100EE00008FB00BF4DF808EDFFF7EAFF34BF012013
:100EF00000205DF808FB00BF4DF808EDFFF7E0FFAC
:100F000094BF012000205DF808FB00BF4DF808EDFC
:100F1000FFF7D2FF94BF012000205DF808FB00BF5F
:100F20004DF808EDFFF7C8FF34BF012000205DF841
:100F300008FB00BF4FEA4002B2F1FE4F0FD34FF063
:100F40009E03B3EB12620DD94FEA002343F0004336
:100F500010F0004F23FA02F018BF404270474FF0E4
:100F60000000704712F1610F01D1420205D110F06B
:100F7000004008BF6FF0004070474FF0000070471E
:100F800042000ED2B2F1FE4F0BD34FF09E03B3EBF3
:100F9000126209D44FEA002343F0004323FA02F01F
:100FA00070474FF00000704712F1610F01D142020B
:100FB00002D14FF0FF3070474FF00000704700BF84
:100FC0007BB972B90029BEBF00204FF0004106E096
:100FD00008BF00281CBF6FF000414FF0FF3000F049
:100FE000A7B9ADF1080C6DE904CE002909DB002B8F
:100FF0001ADB00F035F8DDF804E0DDE9022304B087
:101000007047404261EB4101002B1BDB00F028F8E8
:10101000DDF804E0DDE9022304B0404261EB410168
:10102000524263EB43037047524263EB430300F0C9
:1010300017F8DDF804E0DDE9022304B0404261EB7B
:1010400041017047524263EB430300F009F8DDF8B9
:1010500004E0DDE9022304B0524263EB430370472E
:101060002DE9F0478C460446089E002B4BD18A425E
:10107000154667D9B2FA82F24AB1C2F1200701FAE5
:1010800002F320FA07F7954047EA030C94404FEA31
:10109000154EBCFBFEF71FFA85F80EFB17C307FBC6
:1010A00008F9210C41EA0343994509D9EB1807F1E6
:1010B000FF3180F01C81994540F21981023F2B4499
:1010C000A3EB0903B3FBFEF00EFB103300FB08F1AA
:1010D000A4B244EA0344A14209D92C1900F1FF3318
:1010E00080F00781A14240F2048102382C4440EA9A
:1010F00007400027641A1EB10023D440C6E900430C
:101100003946BDE8F0878B4209D9002E00F0EC800B
:101110000027C6E9000138463946BDE8F087B3FA32
:1011200083F7002F48D18B4202D3824200F2FB802A
:10113000841A61EB030301209C46002EE0D0C6E92F
:10114000004CDDE702B9FFDEB2FA82F2002A40F07D
:101150008F800127491B4FEA15481FFA85F9B1FB1B
:10116000F8FE08FB1E1109FB0EF04FEA144C4CEA86
:101170000143984207D9EB180EF1FF3102D2984291
:1011800000F2CD808E461B1AB3FBF8F008FB10333B
:1011900009FB00F9A4B244EA0344A14507D92C197C
:1011A00000F1FF3302D2A14500F2B6801846A4EB4D
:1011B000090440EA0E409EE7C7F12005BB4022FA31
:1011C00005FC4CEA030C21FA05F44FEA1C4EB4FB73
:1011D000FEF91FFA8CF80EFB194420FA05F3B9400A
:1011E00009FB08FA19430B0C43EA0444A24502FA2E
:1011F00007F200FA07F30BD91CEB040409F1FF30E6
:1012000080F08880A24540F28580A9F102096444FB
:10121000A4EB0A04B4FBFEF00EFB104400FB08FA3A
:1012200089B241EA0444A24508D91CEB040400F148
:10123000FF316BD2A24569D90238644440EA0940C3
:10124000A0FB0289A4EB0A044C454146CE4654D388
:1012500051D0002E69D05A1A64EB0E0404FA05F539
:1012600022FA07F3FC401D43C6E90054002747E774
:101270009540C2F1200321FA03F04FEA1548B0FB74
:10128000F8F71FFA85F908FB170024FA03F39140D9
:1012900007FB09FC0B43190C41EA00418C4504FA99
:1012A00002F407D9691807F1FF3031D28C452FD9E4
:1012B000023F2944A1EB0C01B1FBF8F008FB101C24
:1012C00000FB09FE99B241EA0C418E4507D9691825
:1012D00000F1FF3318D28E4516D902382944A1EB0C
:1012E0000E0140EA07473AE73746304608E70F461F
:1012F000E6E61846FBE64345ABD2B8EB020169EBE4
:101300000C0201389646A4E71846E8E7084695E738
:101310000746CFE781467BE702382C4447E7AEF12A
:10132000020E2B442FE7384607E73746E8E600BFB2
:10133000704700BF844641EA000313F0030349D11C
:10134000403A23D30B6803604B6843608B6883602B
:10135000CB68C3600B6903614B6943618B6983612F
:10136000CB69C3610B6A03624B6A43628B6A836217
:10137000CB6AC3620B6B03634B6B43638B6B8363FF
:10138000CB6BC36340304031403ADBD230320BD3B9
:101390000B6803604B6843608B688360CB68C360F5
:1013A00010301031103AF3D20C3205D351F8043B0F
:1013B00040F8043B043AF9D2043208D0D2071CBFEB
:1013C00011F8013B00F8013B01D30B880380604614
:1013D000704700BF082A13D38B07B1D010F0030366
:1013E000AED0C3F10403D21ADB071CBF11F8013BD6
:1013F00000F8013BA4D331F8023B20F8023B9FE701
:10140000043AD9D3013A11F8013B00F8013BF9D273
:101410000B7803704B7843708B788370604670470D
:101420004FF0FF3C06E000BF4FF0010C02E000BFB0
:101430004FF0010C4DF804CD4FEA410C7FEA6C5C93
:101440004FEA430C18BF7FEA6C5C1BD001B050EA36
:10145000410C0CBF52EA430C91EA030F02BF90EA21
:10146000020F0020704710F1000F91EA030F58BFE0
:10147000994208BF90422CBFD8176FEAE37040F042
:10148000010070474FEA410C7FEA6C5C02D150EAE0
:10149000013C07D14FEA430C7FEA6C5CD6D152EA9B
:1014A000033CD3D05DF8040B704700BF8446104660
:1014B00062468C461946634600E000BF01B5FFF75F
:1014C000B7FF002848BF10F1000F01BD4DF808ED2F
:1014D000FFF7F4FF0CBF012000205DF808FB00BF00
:1014E0004DF808EDFFF7EAFF34BF012000205DF85A
:1014F00008FB00BF4DF808EDFFF7E0FF94BF0120A7
:1015000000205DF808FB00BF4DF808EDFFF7CEFFA7
:1015100094BF012000205DF808FB00BF4DF808EDE6
:10152000FFF7C4FF34BF012000205DF808FB00BFB7
:101530004FEA410C7FEA6C5C02D150EA013C0AD1CF
:101540004FEA430C7FEA6C5C02D152EA033C02D1C1
:101550004FF0000070474FF0010070474FEA410222
:1015600012F5001215D211D56FF47873B3EB6252F5
:1015700012D94FEAC12343F0004343EA505311F01C
:10158000004F23FA02F018BF404270474FF00000AE
:10159000704750EA013005D111F0004008BF6FF0EC
:1015A000004070474FF00000704700BF53B94AB980
:1015B000002908BF00281CBF4FF0FF314FF0FF305B
:1015C000FFF7B6BEADF1080C6DE904CEFFF748FD9C
:1015D000DDF804E0DDE9022304B0704700B583B014
:1015E0000A4B5A6942F001025A615B6903F0010338
:1015F0000193019B002211460E2000F065FA0E2097
:1016000000F096FA03B05DF804FB00BF0010024042
:1016100030B589B0002404940594069407941D4BBA
:101620009A6942F010029A619A6902F010020092DF
:10163000009A9A6942F020029A619A6902F02002A7
:101640000192019A9A6942F004029A619A6902F041
:1016500004020292029A9A6942F008029A619B6916
:1016600003F008030393039B0B4D22464FF40051F4
:10167000284600F003FD4FF4005304930123059323
:1016800006940223079304A9284600F00BFC09B036
:1016900030BD00BF001002400010014072B6FEE7EE
:1016A00000B591B00023089309930B930C93019319
:1016B0000293039304930593012206924FF480331F
:1016C00007930A9202220D920E934FF4E0130F93A8
:1016D00006A800F0EFFC80B90F23019302210291CC
:1016E000002303934FF480620492059301A800F055
:1016F00021FF20B911B05DF804FBFFF7CFFFFFF722
:10170000CDFF000008B500F095F9FFF7C9FFFFF71E
:101710007FFFFFF763FF00F0C7F803F023FC4FF4EF
:101720007A7000F0ABF90DE002F042FE0F4908704C
:1017300001220F4801F0A4F8D02003F0C1FDC82019
:1017400000F09CF9094B93F90030002BECD103F029
:101750005BFC084B1880084A0849094803F0A9FCBB
:10176000084A0949094803F07FFCF0E7000000201F
:101770006C0A0020200A0020180A0020160A002007
:10178000140A00201E0A00201C0A00201A0A002049
:1017900082B00E4B9A6942F001029A619A6902F096
:1017A00001020092009ADA6942F08052DA61DB6944
:1017B00003F080530193019B054A536823F0E063D3
:1017C00043F00073536002B0704700BF0010024046
:1017D00000000140FEE7FEE7FEE7FEE7FEE7704798
:1017E0007047704708B500F037F908BD08B50248E2
:1017F00000F0B6FA08BD00BF280A002008B502486C
:1018000001F052F908BD00BF6C0A002070B50D460A
:101810001646002404E0AFF300802870013401353F
:10182000B442F8DB304670BD70B51646002405E0C2
:101830004D1C0878AFF3008001342946B442F7DB31
:10184000304670BD4FF0FF3070474FF400534B608F
:1018500000207047012070470020704710B50346F4
:101860000C4A0D490D48006840B10C48006803441B
:10187000521A934206D8094A136010BD0748084C13
:101880000460F2E703F03CFD0C2303604FF0FF30EF
:10189000F3E700BF0050002000040000240A0020ED
:1018A000280B00207047000008B50A480A4B036067
:1018B0004FF4E133436000238360C36003610C2273
:1018C00042618361C36100F0ABFF00B908BDFFF75F
:1018D000E5FEFBE76C0A00200038014070B586B0D9
:1018E000002302930393049305930268274B9A42C3
:1018F00001D006B070BD044603F558439A6942F41E
:1019000080429A619A6902F480420092009A9A6930
:1019100042F004029A619B6903F004030193019B66
:101920004FF4007302930223039303230593184E8D
:1019300002A9304600F0B6FA4FF480630293002506
:101940000395049502A9304600F0ACFA1148124BF9
:1019500003601023436085608023C3600561456197
:1019600085614FF48053C36100F01CF958B9094BED
:1019700063635C6200221146252000F0A5F8252053
:1019800000F0D6F8B5E7FFF789FEF0E70038014030
:1019900000080140280A0020440002400C480D497C
:1019A0000D4A002302E0D458C4500433C4188C42BA
:1019B000F9D30A4A0A4C002301E013600432A24220
:1019C000FBD3FFF76FFF03F0A1FCFFF79BFE70470F
:1019D00000000020F80900208CAB0008F809002066
:1019E000240B0020FEE7000010B504460E4B1878CB
:1019F0004FF47A73B3FBF0F30C4A1068B0FBF3F0CA
:101A000000F0A4F868B90F2C01D901200AE00022E7
:101A100021464FF0FF3000F057F8054B1C600020C6
:101A200000E0012010BD00BF0800002004000020DD
:101A30000C00002008B5074A136843F01003136038
:101A4000032000F02FF80020FFF7CEFFFFF7A0FEE5
:101A5000002008BD00200240034A1168034B1B7898
:101A60000B441360704700BFB00A0020080000203C
:101A7000014B1868704700BFB00A002038B5044613
:101A8000FFF7F6FF0546B4F1FF3F02D0044B1B7889
:101A90001C44FFF7EDFF401BA042FAD338BD00BF46
:101AA00008000020074AD36823F4E0631B041B0CE2
:101AB000000200F4E060184340F0BF6040F40030E2
:101AC000D060704700ED00E030B4174BDB68C3F323
:101AD0000223C3F10704042C28BF04241D1D062D76
:101AE00018D9033B4FF0FF3505FA04F421EA04014D
:101AF000994005FA03F322EA0303194300280BDB9C
:101B00000901C9B200F1604000F5614080F800139E
:101B100030BC70470023E5E700F00F000901C9B2AF
:101B2000024B1954F4E700BF00ED00E014ED00E0B3
:101B3000002807DB00F01F02400901239340024AFE
:101B400042F82030704700BF00E100E00138B0F1FA
:101B5000807F0AD2064B5860064AF02182F8231093
:101B60000020986007221A6070470120704700BF6C
:101B700010E000E000ED00E070B4066CC56B0124DD
:101B8000B4406C60046863604368102B05D0036840
:101B900099600368DA6070BC704703689A600368F4
:101BA000D960F8E760B310B402460168154B0B44E6
:101BB0001548A0FB03031B099B001364134BD3635D
:101BC000022382F82130086820F47F5020F0300092
:101BD000536894682343D4682343146923435469A6
:101BE000234394692343D469234303430B600020B8
:101BF0009063012382F8213082F8200010BC7047E6
:101C000001207047F8FFFDBFCDCCCCCC00000240D6
:101C100038B590F82040012C32D0012480F82040C3
:101C200090F82140012C04D0002380F820300220BD
:101C300038BD0446022084F821000020A0632568F6
:101C4000286820F0010028602046FFF795FFE36A2E
:101C50005BB12268136843F00E03136022681368B7
:101C600043F0010313600020E2E72268136823F0C9
:101C7000040313602268136843F00A031360EDE75E
:101C80000220D5E790F82130022B06D0042383638D
:101C9000002380F82030012070470268136823F089
:101CA0000E0313600268136823F001031360036CD2
:101CB000C16B012202FA03F34B6080F8212000235C
:101CC00080F820301846704708B590F82130022B74
:101CD00003D004238363012008BD0268136823F046
:101CE0000E0313600268136823F001031360036896
:101CF000194A934214D0143293421FD014329342A3
:101D00001ED0143293421ED0143293421ED014328D
:101D1000934202D04FF0807203E04FF4801200E053
:101D200001220E4B5A60012380F82130002380F8F5
:101D30002030436B6BB198470020CDE71022F0E7CD
:101D40004FF48072EDE74FF48052EAE74FF48032AF
:101D5000E7E70020C0E700BF0800024000000240A3
:101D600038B5C36B1A6804682568016C04238B407E
:101D7000134235D015F0040F32D0236813F0200F32
:101D800003D1236823F0040323600368434A93428A
:101D900014D01432934218D01432934217D0143214
:101DA000934217D01432934217D01432934202D088
:101DB0004FF0806203E04FF4800200E00422384BD1
:101DC0005A60C36A03B1984738BD4022F7E74FF421
:101DD0008062F4E74FF48042F1E74FF48022EEE7AF
:101DE00002238B4013423CD015F0020F39D02368F8
:101DF00013F0200F06D1236823F00A032360012388
:101E000080F821300368254A934214D0143293425B
:101E10001CD0143293421BD0143293421BD0143284
:101E200093421BD01432934202D04FF0007203E071
:101E30004FF4001200E00222194B5A60002380F890
:101E40002030836A002BBFD09847BDE72022F3E7FC
:101E50004FF40072F0E74FF40052EDE74FF4003218
:101E6000EAE7082303FA01F11142ADD015F0080F9B
:101E7000AAD0236823F00E032360026CC16B0123F8
:101E800003FA02F24A60836380F82130002380F86D
:101E90002030036B002B97D0984795E7080002404D
:101EA00000000240F0B482B000263246A2E0002DCD
:101EB0005AD0012D00D1CE68FF2B69D88446FF2B64
:101EC00069D89500DCF800400F27AF4024EA0704EA
:101ED00006FA05F52C43CCF800404C6814F0805FFE
:101EE00000F087805F4CA56945F00105A561A469F4
:101EF00004F001040194019C9508AF1C5A4C54F85D
:101F0000274002F00307BF004FF00F0C0CFA07FC4C
:101F100024EA0C0C554CA04243D004F58064A04246
:101F200000F0818004F58064A0427ED004F58064D6
:101F3000A04234D0042435E04D4FBD4214D00BD91B
:101F40004C4FBD4210D007F58037BD420CD0A7F5ED
:101F50008017BD42B0D107E0A7F58017BD4203D07E
:101F600007F58037BD42A7D18D687DB1012D08D01E
:101F700044610826A0E7CE6808369DE7CE680C3697
:101F80009AE70461082697E7002695E7042693E779
:101F900000F1040C93E7A2F10805AD0092E70324D9
:101FA00000E00024BC4044EA0C0402352E4F47F800
:101FB00025404C6814F4803F39D02F4D2C681C43C9
:101FC0002C604C6814F4003F37D02B4D6C681C43D8
:101FD0006C604C6814F4801F35D0274DAC681C43EE
:101FE000AC604C6814F4001F33D0234DEC682343DD
:101FF000EB6001320B6833FA02F430D001249440D4
:1020000023409C42F5D14D68122DB7D094D8022DB3
:10201000B1D07FF64CAF032DB6D0112D7FF44CAF6D
:10202000CE68043648E70124BCE70224BAE7124D23
:102030002C6824EA03042C60C3E70F4D6C6824EA83
:1020400003046C60C5E70C4DAC6824EA0304AC6083
:10205000C7E7094DEC6824EA0303EB60C9E702B067
:10206000F0BC704700100240000001400008014031
:1020700000002110000031100004014012B90904D1
:10208000016170470161704782B0084B1B68084AC4
:10209000A2FB03235B0A00FB03F0019000BF019B3E
:1020A0005A1E0192002BF9D102B0704704000020A3
:1020B000D34D6210002800F0F58170B582B004465F
:1020C000036813F0010F2CD0AB4B5B6803F00C03DB
:1020D000042B1DD0A84B5B6803F00C03082B12D017
:1020E0006368B3F5803F41D0002B55D103F18043A5
:1020F00003F504331A6822F480321A601A6822F455
:1021000080221A6037E09C4B5B6813F4803FE7D075
:10211000994B1B6813F4003F03D06368002B00F059
:10212000C381236813F0020F76D0934B5B6813F0E2
:102130000C0F5FD0904B5B6803F00C03082B54D05E
:102140002369002B00F08A808C4B01221A60FFF774
:102150008FFC0546884B1B6813F0020F75D1FFF703
:1021600087FC401B0228F5D90320A0E1824A1368AE
:1021700043F480331360636843B3FFF779FC05468B
:102180007D4B1B6813F4003FCBD1FFF771FC401B64
:102190006428F5D903208AE1B3F5A02F09D0764B46
:1021A0001A6822F480321A601A6822F480221A60B7
:1021B000E1E703F18043A3F53C331A6842F480223F
:1021C0001A601A6842F480321A60D4E7FFF750FCB4
:1021D0000546694B1B6813F4003FA2D0FFF748FC8B
:1021E000401B6428F5D9032061E1634B5B6813F45D
:1021F000803FA5D1604B1B6813F0020F04D0236908
:10220000012B01D0012052E15B4A136823F0F8034F
:10221000616943EAC1031360236813F0080F32D0E9
:10222000A369002B5BD0564B01221A60FFF720FCFC
:102230000546514B5B6A13F0020F21D1FFF718FCE2
:10224000401B0228F5D9032031E14B4A136823F0E3
:10225000F803616943EAC1031360DDE7474B0022DD
:102260001A60FFF705FC0546434B1B6813F0020F8D
:10227000D2D0FFF7FDFB401B0228F5D9032016E161
:102280000120FFF701FF236813F0040F00F098808E
:10229000394BDB6913F0805F33D1374BDA6942F099
:1022A0008052DA61DB6903F080530193019B0125C1
:1022B000344B1B6813F4807F25D0E368012B36D0A4
:1022C000002B4CD103F1804303F504331A6A22F04A
:1022D00001021A621A6A22F004021A622CE0284BE8
:1022E00000221A60FFF7C4FB0546234B5B6A13F01C
:1022F000020FC8D0FFF7BCFB401B0228F5D9032012
:10230000D5E00025D4E71F4A136843F480731360B7
:10231000FFF7AEFB06461B4B1B6813F4807FCCD146
:10232000FFF7A6FB801B6428F5D90320BFE0124A03
:10233000136A43F001031362E3687BB3FFF798FB72
:1023400006460D4B1B6A13F0020F38D1FFF790FBC6
:10235000801B41F288339842F3D90320A7E0052B74
:1023600012D0054B1A6A22F001021A621A6A22F090
:1023700004021A62E0E700BF00100240000042427F
:1023800080044242007000404C4B1A6A42F0040242
:102390001A621A6A42F001021A62CDE7FFF768FB7F
:1023A0000646464B1B6A13F0020F08D0FFF760FB8E
:1023B000801B41F288339842F3D9032077E0E5B9D6
:1023C000E369002B72D03D4A526802F00C02082AE1
:1023D00056D0022B17D03A4B00221A60FFF748FB69
:1023E0000446364B1B6813F0007F47D0FFF740FBD5
:1023F000001B0228F5D9032059E0304AD36923F0A5
:102400008053D361DCE72E4B00221A60FFF730FBCC
:1024100005462A4B1B6813F0007F06D0FFF728FB08
:10242000401B0228F5D9032041E0236AB3F5803F21
:102430001AD022494B6823F47413226A606A02435B
:1024400013434B601E4B01221A60FFF711FB044639
:102450001A4B1B6813F0007F0ED1FFF709FB001B1E
:102460000228F5D9032022E0144A536823F40033EC
:10247000A1680B435360DCE7002018E0002016E061
:10248000012B16D00D4B5B6803F48031226A914218
:1024900001D001200BE003F47013626A93420AD06A
:1024A000012004E001207047012000E0002002B07C
:1024B00070BD0120FBE70020F9E700BF00100240DB
:1024C0006000424210B487B0164C94E80F000DF142
:1024D000180C0CE90F00238AADF80430124B5B682E
:1024E00003F00C02082A1AD1C3F38342624412F8A3
:1024F000102C13F4803F05D10C4800FB02F007B00C
:1025000010BC7047084B5B68C3F34043634413F847
:10251000143C074800FB02F0B0FBF3F0EFE704487F
:10252000EDE700BF989B00080010024000093D0045
:1025300000127A00002800F0A38070B50446524BC8
:102540001B6803F007038B420CD24F4A136823F039
:1025500007030B431360136803F007038B4201D09A
:10256000012070BD236813F0020F17D013F0040F81
:1025700004D0464A536843F4E0635360236813F081
:10258000080F04D0414A536843F4605353603F4AF4
:10259000536823F0F003A068034353600D4623689B
:1025A00013F0010F31D06368012B20D0022B25D00E
:1025B000364A126812F0020F64D034494A6822F099
:1025C000030213434B60FFF753FA06462F4B5B6839
:1025D00003F00C036268B3EB820F16D0FFF748FAE2
:1025E000801B41F288339842F0D90320B9E7274A8B
:1025F000126812F4003FE0D10120B2E7234A1268CA
:1026000012F0007FD9D10120ABE71F4B1B6803F00C
:102610000703AB420CD91C4A136823F007032B4372
:102620001360136803F00703AB4201D0012098E761
:10263000236813F0040F06D0144A536823F4E063B0
:10264000E1680B435360236813F0080F07D00F4A6B
:10265000536823F46053216943EAC1035360FFF7D1
:1026600031FF0A4B5B68C3F30313094AD35CD840BC
:10267000084B1860084B1868FFF7B6F9002070E7A0
:102680000120704701206CE700200240001002404A
:10269000F89B0008040000200C000020014B186883
:1026A000704700BF0400002008B5FFF7F7FF044B98
:1026B0005B68C3F30223034AD35CD84008BD00BF64
:1026C00000100240089C000808B5FFF7E7FF044B24
:1026D0005B68C3F3C223034AD35CD84008BD00BF84
:1026E00000100240089C00080268D36823F0C00371
:1026F000D360202380F83D3070470268D36823F40C
:102700009073D3600268536923F001035361036B34
:10271000012B05D0202380F83E300023036370474F
:102720000268D36823F01003D360F3E790F83D30DC
:10273000DBB2212B27D18368B3F5805F16D0036A03
:102740005A1C02621A7803685A60C38C013B9BB220
:10275000C384D3B90268D36823F08003D3600268CE
:10276000D36843F04003D360002070470369002B17
:10277000E5D1036A1B880268C3F308035360036A48
:1027800002330362E1E70220704700207047000037
:1027900038B504460268136923F44053C1680B43FB
:1027A000136183680269134342691A430168CB6865
:1027B00023F4B05323F00C031343CB600268536936
:1027C00023F4407381690B4353610268124B9A42B0
:1027D0001FD0FFF769FF00EB800000EB800063680B
:1027E0009B00B0FBF3F00D4DA5FB003251096422B4
:1027F00002FB110213013233A5FB03235B0903F033
:10280000F00202EB011203F00F03216813448B6006
:1028100038BDFFF759FFDEE7003801401F85EB5157
:1028200058B310B5044690F83D300BB3242384F818
:102830003D302268D36823F40053D3602046FFF76D
:10284000A7FF2268136923F4904313612268536938
:1028500023F02A0353612268D36843F40053D36002
:1028600000202064202384F83D3084F83E3010BDE1
:1028700080F83C30FFF732F8D8E7012070470000BD
:1028800038B590F83D40E4B2202C31D1002931D048
:10289000002A31D090F83C30012B2FD0134604464B
:1028A000012280F83C2001628384C38400250564F2
:1028B000212280F83D20426B11489062626B1148E2
:1028C000D062626B10481063626B556322680432F9
:1028D000606BFFF79DF923686FF040021A6084F87F
:1028E0003C502268536943F080035361284600E05E
:1028F000022038BD0120FCE70120FAE70220F8E7BA
:102900000F2900085B29000869290008704708B5ED
:10291000436A0268126812F0200F0CD10022DA8498
:1029200019684A6922F080024A611A68D36843F044
:102930004003D36008BD1846FFF7E8FFFAE708B583
:102940000168CB6823F04003CB60202380F83D3042
:10295000FFF7DCFF002008BD704708B5406AFFF7AD
:10296000FBFF08BD7047704710B5446A23685A6979
:1029700094F83D30DBB2212B10D023685A6902F065
:10298000400294F83E30DBB2222B11D0236C43F08E
:10299000100323642046FFF7E6FF10BD02F080021B
:1029A000002AEAD00023E3842046FFF79DFEE4E7F7
:1029B000002AEBD00023E3852046FFF79EFEE5E7E3
:1029C00008B5406A0023C385C384FFF7CCFF08BD68
:1029D000704790F83E30DBB2222B60D18368B3F5AC
:1029E000805F45D0826AB3F5805F04D0002B4CD164
:1029F0000369002B49D103685B681370836A013354
:102A00008362C38D013B9BB2C385002B49D100B5C6
:102A100083B00268D36823F02003D3600268D368D0
:102A200023F48073D3600268536923F00103536178
:102A3000202380F83E30036B012B2CD1002303634D
:102A40000268D36823F01003D36003681A6812F099
:102A5000100F06D0002201921A6801925B68019360
:102A6000019B818DFFF7B4FF002003B05DF804FBEC
:102A70000269002AB6D1826A03685B68C3F308035F
:102A80001380836A02338362BBE703685B6803F0E9
:102A90007F031370B2E7FFF765FF0020E5E7022030
:102AA000704700207047000030B583B004460268CC
:102AB0001368D068516913F00F0505D113F0200F8A
:102AC00002D010F0200F56D1002D6AD011F0010174
:102AD00002D110F4907F64D013F0010F06D010F4EF
:102AE000807F03D0226C42F00102226413F0040FB5
:102AF00004D019B1226C42F00202226413F0020FDA
:102B000004D019B1226C42F00402226413F0080FC1
:102B100007D010F0200F00D119B1226C42F008024A
:102B20002264226C002A4BD013F0200F02D010F048
:102B3000200F24D123685B6903F04003226C12F05C
:102B4000080F00D13BB32046FFF7D7FD23685A6931
:102B500012F0400F1BD05A6922F040025A61A36B59
:102B60008BB14D4A5A63A06BFFF7AEF840B3A06B30
:102B7000436B984724E02046FFF72BFF20E02046D8
:102B8000FFF727FFD6E72046FFF7EDFE18E02046C7
:102B9000FFF7E9FE14E02046FFF7E5FE002323647B
:102BA0000EE0216B01290DD013F0800F02D010F040
:102BB000800F69D113F0400F02D010F0400F67D1A1
:102BC00003B030BD13F0100FEED010F0100FEBD0AB
:102BD000002301931368019353680193019B536988
:102BE00013F0400F2FD0A16B0B685B689BB2002BDA
:102BF000E6D0A08D9842E3D9E3858B69202B1AD0CB
:102C0000D36823F48073D3602268536923F00103EF
:102C100053612268536923F040035361202384F8F1
:102C20003E30002323632268D36823F01003D3606F
:102C3000A06BFFF727F8A18DE38DC91A89B2204652
:102C4000FFF7C6FEBCE7A18DE38DC91A89B2E38DFB
:102C50009BB2002BB4D00029B2D0D36823F4907378
:102C6000D3602268536923F001035361202384F861
:102C70003E30002323632268D36823F01003D3601F
:102C80002046FFF7A5FE9BE72046FFF74FFD97E79D
:102C90002046FFF754FE93E7C129000830B40C4AE0
:102CA00055680C4B1B6800FB03F09268002105E09F
:102CB000EC1A224411441A46814207D2044B9B6805
:102CC0009A42FBD0F4D9D21A1144F4E730BC7047D1
:102CD00010E000E0B40A002038B50546002404E006
:102CE0004FF47A70FFF7DAFF0134A542F8D838BD07
:102CF000F0B583B006462A4B586801AB04220D217B
:102D0000007802F06AF9002848D19DF80420D2101A
:102D100002F01C029DF80710C1F301131A438DF84D
:102D200000209DF80520D21002F01C02C1F381039F
:102D30001A438DF801209DF80630DB1003F01C03C8
:102D400001F003010B438DF80230002414E000234E
:102D500046F824300EE013492868FDF725FF286067
:102D600002ABDA1912F8083C013BDBB202F8083C6E
:102D7000002BF0D10134E4B2022C0CD8274602AB70
:102D8000234413F8083C002BE1D006EB8405064BE6
:102D900046F82430E4E7002003B0F0BD0720FBE74D
:102DA0001C0000201D5A843F7B14AE3E2DE9F043E9
:102DB00085B080460F4601A8FFF79AFF00263446EB
:102DC0000DE020494846FEF78DF820B91E494846D7
:102DD000FEF7A6F810B10123A3401E430134022CD4
:102DE0002CDCA50058F8240057F82430C01A00281D
:102DF000B8BF4042FDF784FE4FF05E51FDF7D4FEB0
:102E0000814604AB1D4455F80C5C00212846FEF7B2
:102E10005FF80028D5D129464846FDF779FF4FF0E5
:102E20007E51FDF7B7FD20F000400849FEF778F825
:102E30000028D3D00123A3401E43CFE7304605B07E
:102E4000BDE8F0839A99993E3333733F295C0F3E76
:102E50002DE9F04182B007468846364B586801ABF1
:102E600003220D21007802F0B8F800285CD19DF80B
:102E7000043003F01F038DF804309DF8053003F093
:102E80001F038DF805309DF8063003F01F038DF801
:102E9000063000252C4624E02749FDF785FE02ABCD
:102EA0001A1912F8043C013BDBB202F8043C002B77
:102EB000F2D101463046FDF72BFF4FF07E51FDF772
:102EC00069FD20F000401D49FEF72AF840B10123BA
:102ED000A3401D4304E01A48E1E70123A3401D433A
:102EE0000134022C21DC57F8240058F82430C01A91
:102EF0000028B8BF4042FDF703FE4FF05E51FDF7DA
:102F000053FE064602AB234413F8043C002BE2D1E7
:102F10000C49FDF7E7FF0028DFD10B493046FDF7EC
:102F2000FFFF0028DCD0D8E70725284602B0BDE81F
:102F3000F08100BF1C00002054E3853F295C0F3E58
:102F40000000C841000020410000D24200B583B01B
:102F5000234B93F82430CBB1A0B102238DF8073076
:102F60001F4B586819680DF107030122C97B0078CF
:102F700001F046FF48BB9DF80720194B5A7403B077
:102F80005DF804FB00238DF80730E9E7144B9B7ACA
:102F9000F3B110B1124B5B7CEBB990B101238DF80A
:102FA00007300F4B586819680DF107030122C97BE0
:102FB000007801F025FF80B99DF80720084B5A746E
:102FC000DDE700238DF80730EBE74FF0FF30D6E761
:102FD0004FF0FF30D3E70020D1E74FF0FF30CEE7CE
:102FE0001C0000202DE9F04385B005460C4616462E
:102FF00001238DF8043000238DF80530AB4B586861
:10300000196801AB0222897C007801F0F9FE0028E2
:1030100040F0D981C820FFF75FFE04AB002203F81F
:103020000C2DA24A506811680122C97B007801F07A
:10303000E7FE002840F0CA819C4B5868196801AB34
:1030400001224979007801F0DBFE002840F0C181BF
:10305000964B5868196801AB0122897C007801F011
:10306000CFFE002840F0B881904B5868196801AB3A
:103070000122C97D007801F0C3FE002840F0AF8135
:103080008A4B5868196801AB01220979007801F070
:10309000B7FE002840F0A68104AB0C2203F80C2DEB
:1030A000824A5068116801220979007801F0A8FE6F
:1030B000002840F09A810F20FFF70EFE7B4A936AAA
:1030C000597A04AB03F80C1D506811680122897805
:1030D000007801F095FE002840F08A81734A936AD7
:1030E000197A04AB03F80C1D506811680122497865
:1030F000007801F085FE002840F07D81002E00F070
:10310000C7806A4B9B6A9B7A63F01F038DF804307B
:10311000664B5868196801AB01228979007801F083
:103120006FFE002840F06A81002E00F0B7805F4BF0
:103130009B6ADB7A63F01F038DF804305B4B5868A1
:10314000196801AB0122C979007801F059FE002805
:1031500040F05781002E40F0A58004AB402203F8D8
:103160000C2D524A5068116801220979007801F04B
:1031700047FE002840F0488104AB782203F80C2D6C
:103180004A4A5068116801224979007801F038FEF6
:10319000002840F03C813220FFF79EFD04AB002266
:1031A00003F80C2D414A50681168012249790078D2
:1031B00001F026FE002840F02D813C4B586819682C
:1031C00001AB0222897A007801F007FF002840F065
:1031D00024819DF804309DF8057047EA0327344B9D
:1031E000A3FB0737C7F3C7070026AE606E602E60EB
:1031F000A66066602660BE425CD22C4B5868196897
:1032000001AB0C22C97A007801F0E7FE002840F0FB
:1032100007819DF804309DF8051041EA032109B2A9
:103220009DF806309DF8072042EA032212B29DF86D
:1032300008009DF8093043EA00231BB220680144CE
:10324000216061680A446260A2681344A3609DF82B
:103250000A309DF80B2042EA032212B29DF80C308E
:103260009DF80D1041EA032109B29DF80E009DF86A
:103270000F3043EA00231BB2286802442A606A68C0
:1032800011446960AA681344AB600136F6B2B2E734
:10329000064B9B6A9B7A8DF8043039E718238DF82A
:1032A00004304BE7C820FFF717FD56E71C0000204D
:1032B000ABAAAAAA29688322002308040914FDF7EF
:1032C0007FFEFEB2002732463B46FDF779FE2860BE
:1032D00069688322002308040914FDF771FE324651
:1032E0003B46FDF76DFE6860A96883220023080451
:1032F0000914FDF765FE32463B46FDF761FEA86006
:1033000023684FEA03484FEA2349B8F1000F79F1E7
:1033100000033BDB4FEAD82032463B4640EA4950A7
:103320004FEAE921FDF74CFE206063684FEA03484D
:103330004FEA2349B8F1000F79F100032EDB4FEA81
:10334000D82032463B4640EA49504FEAE921FDF792
:1033500037FE6060A3684FEA03484FEA2349B8F19B
:10336000000F79F1000321DB4FEAD82032463B46BB
:1033700040EA49504FEAE921FDF722FEA06000280B
:103380001CDDA0F58030A06000204BE040F2FF7211
:10339000002318EB020849EB0309BBE740F2FF7278
:1033A000002318EB020849EB0309C8E740F2FF725B
:1033B000002318EB020849EB0309D5E700F580303C
:1033C000A06000202EE04FF0FF302BE04FF0FF30E8
:1033D00028E04FF0FF3025E04FF0FF3022E04FF0C3
:1033E000FF301FE04FF0FF301CE04FF0FF3019E0DE
:1033F0004FF0FF3016E04FF0FF3013E04FF0FF309A
:1034000010E04FF0FF300DE04FF0FF300AE04FF0DA
:10341000FF3007E04FF0FF3004E04FF0FF3001E0F5
:103420004FF0FF3005B0BDE8F08300BF7B4B9B7AC7
:10343000002B00F0D48000B583B002AB002203F86B
:10344000012D764A506811680122C97B007801F08D
:10345000D7FC002840F0C680704B586819680DF101
:10346000070301224979007801F0CAFC002840F0E6
:10347000BC806A4B586819680DF10703012209796D
:10348000007801F0BDFC002840F0B280634B93F857
:103490002430002B53D002AB0C2203F8012D5F4ADD
:1034A0005068116801220979007801F0A9FC002810
:1034B00040F0A1803220FFF70FFCC0238DF80730C9
:1034C000564B9B7A13F0010F02D0E0238DF80730A2
:1034D000524B586819680DF10703012209790078E9
:1034E00001F08EFC002840F089804C4B5B7CFBB1E6
:1034F00002238DF80730494B586819680DF107030E
:103500000122C97B007801F07BFC002879D102AB55
:10351000002203F8012D414A5068116801224979BF
:10352000007801F06DFC38B9002003B05DF804FBB1
:1035300000238DF80730DEE74FF0FF30F5E702ABF0
:10354000042203F8012D354A5068116801220979D7
:10355000007801F055FC002856D1304B9B7C23B9F4
:103560002E4B9B7A13F0010F2ED140238DF807309C
:103570002A4B586819680DF1070301220979007870
:1035800001F03EFC002842D13220FFF7A5FB234B7F
:103590005B7CEBB101238DF80730204B586819682C
:1035A0000DF107030122C97B007801F029FC88BBDB
:1035B0001A4B586853F8101B01224979007801F022
:1035C0001FFC48B90020B0E760238DF80730CFE733
:1035D00000238DF80730E0E74FF0FF30A5E74FF00C
:1035E000FF3070474FF0FF309FE74FF0FF309CE710
:1035F0004FF0FF3099E74FF0FF3096E74FF0FF3084
:1036000093E74FF0FF3090E74FF0FF308DE74FF03A
:10361000FF308AE74FF0FF3087E700BF1C00002033
:103620000D4B1B7A032B13D8DFE803F002060A0EBA
:10363000FA230380002070474FF4FA730380F9E700
:103640004FF47A730380F5E74FF4FA630380F1E7F0
:1036500000230380EEE700BF1C000020224B9B7A72
:10366000002B36D000B583B0B0F5FA7F29D009D948
:10367000B0F57A7F29D0B0F5FA6F2DD118238DF8E7
:10368000073004E0FA2827D100238DF80730164BC5
:103690001B7A9DF80720B3EBD20F20D0124B58684D
:1036A00019680DF1070301228979007801F0A8FB60
:1036B000B8B99DF80730DB080B4A137203B05DF808
:1036C00004FB08238DF80730E1E710238DF807305D
:1036D000DDE74FF0FF3070474FF0FF30EEE700209E
:1036E000ECE74FF0FF30E9E71C0000200F4B5B7A5E
:1036F000032B16D8DFE803F0020C0F12022303702D
:103700000A4BDB7C83B103785B00037000207047B9
:1037100004230370F4E708230370F1E71023037018
:10372000EEE74FF0FF307047002070471C0000208C
:10373000234B9B7A002B37D000B583B002380E287C
:1037400035D8DFE800F008342534343429343434F3
:10375000343434342D0000238DF80730184B5B7A55
:103760009DF80720B3EBD20F24D0154B5868196889
:103770000DF107030122C979007801F041FBD8B9A6
:103780009DF80730DB080E4A537203B05DF804FB66
:1037900008238DF80730E1E710238DF80730DDE7C7
:1037A00018238DF80730D9E74FF0FF3070474FF0FE
:1037B000FF30EAE70020E8E74FF0FF30E5E700BF21
:1037C0001C0000200F4BDB7A013B052B17D8DFE8EC
:1037D00003F003070A0D1013BC2303800020704779
:1037E00062230380FAE72A230380F7E71423038088
:1037F000F4E70A230380F1E705230380EEE70023C3
:103800000380EBE71C000020234B9B7A002B3AD06F
:1038100000B583B0BB281AD901238DF807301E4BA1
:10382000DA7A9DF807309A4230D01B4B58681968F5
:103830000DF1070301228978007801F0E1FA38BB25
:103840009DF80720144BDA7203B05DF804FB612881
:1038500003D902238DF80730E1E7292803D9032390
:103860008DF80730DBE7132803D904238DF80730E0
:10387000D5E7092803D905238DF80730CFE70623BC
:103880008DF80730CBE74FF0FF3070470020DBE7C3
:103890004FF0FF30D8E700BF1C000020054B93F825
:1038A000243023B9034BDB890380002070474FF09D
:1038B000FF3070471C0000200D4B1B7A032B13D8E0
:1038C000DFE803F002060A0E0A4B0360002070478F
:1038D000094B036000207047084B036000207047CD
:1038E000074B0360002070474FF0FF30704700BF68
:1038F0001C000020000003430000834233330342D6
:1039000033338341114B5B7A032B1AD8DFE803F082
:10391000020D11154FF4804303800C4BDB7C9BB1EF
:1039200003885B0803800020704741F69C73038086
:10393000F3E74FF480530380EFE74FF40063038015
:10394000EBE74FF0FF307047002070471C0000206D
:10395000024B1B7C03700020704700BF1C0000203E
:1039600070B5164B93F8243013BB00F0FE04134BD4
:103970009B7A03B3114A167C23401374A34211D0DF
:103980004FF0FF3514B90D4B1B7D6BB10120FFF7D4
:10399000DDFA74B1FFF74AFD58B1084B1E744FF0C1
:1039A000FF3506E00025EDE70020FFF7CFFAF0E74E
:1039B0000025284670BD4FF0FF35FAE71C000020B7
:1039C000584B9B7C834200F09B8010B582B004462C
:1039D000002843D0534B586819680DF107030122A2
:1039E0000979007801F0F9FA002840F08B809DF801
:1039F000072022F0200202AB03F8012D494A50684B
:103A0000116801220979007801F0FAF900287CD1C7
:103A10000320FFF761F902238DF80730414B93F83B
:103A2000223013B182238DF807303E4B93F82330B8
:103A30002BB19DF8073043F030038DF80730394B38
:103A4000586819680DF107030122097D007801F01B
:103A5000D7F9002844D04FF0FF3044E0314B58688C
:103A600019680DF1070301220979007801F0B5FA10
:103A700000284DD12B4B9B7A13F0010F35D09DF8C8
:103A8000073043F020038DF80730264B586819683B
:103A90000DF1070301220979007801F0B1F900283E
:103AA00039D10320FFF718F91E4B93F822301BB3CE
:103AB00080238DF807301B4B93F823302BB19DF8F2
:103AC000073043F030038DF80730164B58681968FB
:103AD0000DF107030122097D007801F091F9E8B9A1
:103AE000104B9C74002002B010BD9DF8073023F0ED
:103AF00020038DF80730C8E700238DF80730DAE798
:103B0000002070474FF0FF30EDE74FF0FF30EAE75D
:103B10004FF0FF30E7E74FF0FF30E4E74FF0FF30C2
:103B2000E1E700BF1C0000201B4B93F823308342C9
:103B30002DD010B582B030B330238DF80730164B3E
:103B40009B7C2BB19DF8073043F002038DF80730C2
:103B5000114B93F822302BB19DF8073063F07F03AF
:103B60008DF8073004460C4B586819680DF10703AF
:103B70000122097D007801F043F950B9064B83F822
:103B8000234002B010BD00238DF80730D7E7002096
:103B900070474FF0FF30F4E71C00002028285FD862
:103BA00010B582B00446B8B90020FFF7BDFF00236E
:103BB0008DF8043007238DF805302E4B58681968AE
:103BC00001AB0222897C007801F01AF900284AD161
:103BD000284B187502B010BD0120FFF7A5FF202368
:103BE0008DF80430012C26D0052C2BD9142C30D87C
:103BF00002238DF805300A20FFF706FE9DF80530F8
:103C00009B0143F007038DF805301A4B586819687B
:103C100001AB0222897C007801F0F2F830BB154B31
:103C200008229A7200241C7301221A752046FFF79D
:103C300097FE2046CEE700238DF805300520FFF7DC
:103C4000E3FDDBE701238DF805300520FFF7DCFD00
:103C5000D4E703238DF805301420FFF7D5FDCDE719
:103C60004FF0FF3070474FF0FF30B3E74FF0FF30B9
:103C7000B0E700BF1C000020264B9B7A002B3FD0F2
:103C800010B582B00446234B93F82430002B3AD170
:103C9000204B1B7D33B1431E9BB2272B0AD900203A
:103CA000FFF77CFF032C0AD9B4F57A7F08D94FF4CB
:103CB0007A7405E0C0B2FFF771FF00201EE0042413
:103CC0004FF47A7090FBF4F0013802AB03F8010D69
:103CD000104A5068116801224978007801F090F884
:103CE000A0B99DF80700431C4FF47A7090FBF3F0E5
:103CF000084BD8814008FFF787FD002002B010BDB7
:103D00004FF0FF3070474FF0FF30F7E74FF0FF30D4
:103D1000F4E700BF1C00002010B582B0044610F08C
:103D2000700F50D001238DF80730334B5868196855
:103D30000DF107030122897C007801F061F8002869
:103D40004AD19DF8073003F0BF032B4A13730023B9
:103D50008DF8073014F0400F02D104238DF807309E
:103D600014F0200F05D19DF8073043F002038DF8C1
:103D7000073014F0100F05D19DF8073043F0010310
:103D80008DF8073014F0080F05D19DF8073043F087
:103D900038038DF80730184B586819680DF1070380
:103DA0000122C97C007801F02BF8D8B90CB1082C9D
:103DB0001ED1114B9C7200241C753220FEF78CFF23
:103DC000204602B010BD18B100238DF80730ACE7D3
:103DD00040238DF80730A8E7074B00229A724FF076
:103DE000FF30EEE7044B00229A724FF0FF30E8E715
:103DF0000020FFF799FEDCE71C00002010B582B020
:103E000002AB802203F8082D664A5068116801222F
:103E1000897C007800F0F4FF002840F0A480642042
:103E2000FEF75AFF02AB002203F8082D5D4A5068E6
:103E300011680122897C007800F0E2FF002840F040
:103E40009580584B586819686B460622897D007822
:103E500001F0C3F8002840F08C809DF8051089001F
:103E600001F004039DF80310490001F00201194319
:103E70009DF9013003F00103194352D0012946D0C6
:103E8000022948D1474B0022DA74464BFF229A722E
:103E90001A725A72DA724FF6FF71D9811A749A74D3
:103EA00001221A7383F82220002283F823205A75F6
:103EB0001A75C3F81620C3F81A20C3F81E2083F819
:103EC000242083F82520DA844FF4FA60FFF7C6FB3C
:103ED000002854D10220FFF72BFC002852D12A20C1
:103EE000FFF792FC002850D13220FFF7C5FE0028D2
:103EF0004ED1FFF735FD00284DD1FFF761FD044697
:103F000000284BD1FFF708FF204602B010BD254B1B
:103F10000122DA74B9E7244801F066FA4FF0FF3461
:103F2000F2E7204B586819686B460122C97800787F
:103F300001F053F800BB9DF8003013F00F0305D0DB
:103F4000042B09D0174B0022DA749EE7174801F0C2
:103F5000ADFA4FF0FF34D7E7154801F0A7FA114B3F
:103F60000122DA7491E74FF0FF34CDE74FF0FF34D0
:103F7000CAE74FF0FF34C7E74FF0FF34C4E74FF014
:103F8000FF34C1E74FF0FF34BEE74FF0FF34BBE72B
:103F90004FF0FF34B8E74FF0FF34B5E74FF0FF3490
:103FA000B2E700BF1C0000201C9C0008449C0008D5
:103FB000909C00085AB370B582B016461A4A927A9D
:103FC00042B3020A8DF80420C0B28DF805000844FF
:103FD000154A55686A8990421FDC0C46124B1968D5
:103FE00001AB0222097E287800F00AFFC0B90E4B0F
:103FF000586819683346E2B2497D007800F000FF46
:1040000010B9002002B070BD4FF0FF30FAE74FF05A
:10401000FF3070474FF0FF30F4E74FF0FF30F1E72B
:104020004FF0FF30EEE700BF1C0000205AB370B520
:1040300082B016461A4A927A42B3020A8DF80420D8
:10404000C0B28DF805000844154A55686A89904247
:104050001FDC0C46124B196801AB0222097E28783E
:1040600000F0CEFEC0B90E4B586819683346E2B274
:10407000497D007800F0B1FF10B9002002B070BD9A
:104080004FF0FF30FAE74FF0FF3070474FF0FF304E
:10409000F4E74FF0FF30F1E74FF0FF30EEE700BFFD
:1040A0001C0000202DE9F04387B0244C94F82540F3
:1040B000002C34D1002935D0994690460F4606464B
:1040C000B44213D2351B102DA8BF1025ADB23A193A
:1040D00029462046FFF76EFF38BB02AA2946204634
:1040E000FFF7A4FF20BB2C44A4B2E9E74FEA182352
:1040F0008DF804308DF80580104B5868196801ABB5
:104100000222897E007800F07BFEA0B90B4B0122D1
:1041100083F82520A3F8269007B0BDE8F0834FF080
:10412000FF30F9E74FF0FF30F6E74FF0FF30F3E7ED
:104130004FF0FF30F0E74FF0FF30EDE71C000020BC
:10414000224B93F8243083423AD030B583B010B379
:104150001E4B93F82530002B34D00020FEF7F6FEDE
:104160000020FFF72DFC194DE88CFFF785FD00249A
:1041700002AB03F8014D686801222321007800F0AA
:104180003FFE012085F82400FEF7E0FEFFF74EF920
:10419000204603B030BD0020FEF7D8FE0B4D2A7C30
:1041A00002AB03F8012D686801222321007800F09A
:1041B00027FE002485F82440FFF738F92046E8E779
:1041C000002070474FF0FF30E3E700BF1C000020E5
:1041D0002DE9F04188B006460F463C4B93F8245039
:1041E000FDB901A8FFF71CFA0DF10700FFF77EFAF1
:1041F0006846FFF7E7FA0DF10200FFF74FFB334B7C
:1042000093F80A800DF10600FFF7A2FB0024012CB1
:104210000CDC002239463046FEF7E4FE30B10134B2
:10422000F5E70020FFF78CFF0125DAE7022C20D00C
:104230000024012C07DC012202A905A8FEF7D2FE0A
:1042400008B10134F5E7022C01D1002412E002A9E3
:104250003846FEF7ABFDC7B205A93046FEF7F8FDBC
:10426000C0B220B100242FB944F0020402E00124BE
:10427000F9E70024154BFF221A725A72DA724FF6D0
:10428000FF71D9819A721A7401221A73BDF8040061
:10429000FFF7E4F99DF80700FFF74AFABDF80000C0
:1042A000FFF7B2FABDF80200FFF7E6FC4046FFF761
:1042B00033FD9DF80600FFF753FB1DB9204608B0FB
:1042C000BDE8F0810120FFF73BFFF7E71C0000206D
:1042D00010B588B002A905A8FFF77AFF01A8FFF77B
:1042E000EBFA019C0598FCF70BFC2146FCF75CFC03
:1042F000FCF720FE05900698FCF702FC2146FCF72F
:1043000053FCFCF717FE06900798FCF7F9FB2146D3
:10431000FCF74AFCFCF70EFE079005A800F038F900
:104320000DF10200FFF7EEFABDF80230029A03FB2E
:1043300002F20292039A03FB02F20392049A03FB35
:1043400002F3049302A800F0ADF9002008B010BDFC
:1043500090F90030002B01DD002070470FDB90F951
:104360000130002B01DD012070470ADB90F902309B
:10437000002B08DC01DB0720704706207047042073
:104380007047052070470220704738B50546FFF793
:10439000DFFF0446E81CFFF7DBFF44EAC00424B259
:1043A000A81DFFF7D5FF44EA801080B238BD000099
:1043B00008B5FFF723FD80BB7820FFF7ADFCC0B246
:1043C00008B101202AE07820FFF7CAFAC0B230BB5A
:1043D0006420FFF751FCC0B218BB00F031F8C0B246
:1043E00008BB1648FFF7D1FF00F036F8C0B2E0B9BD
:1043F00040F2731000F0F8FBC0B2C0B9642000F0C6
:10440000D5F9C0B2A8B9FFF763FFA0B90120FFF743
:1044100097FEC0B210B1092000E00A2008BD0220BA
:10442000FCE70320FAE70420F8E70520F6E706207A
:10443000F4E70720F2E70820F0E700BF10000020B3
:1044400008B5C8234FF48062024940F6F630FFF702
:1044500029FE08BDF49C000810B586B004464A4BFE
:104460001A68ADF80C20120C8DF80E205A68ADF8C1
:104470000820120C8DF80A209A68ADF80420120C5E
:104480008DF80620DB68ADF800301B0C8DF802308B
:1044900000F0030106AB194411F80C3C8DF8143000
:1044A000C0F3C10206AB1A4412F80C3C8DF815306B
:1044B000C0F3811306A8034413F80C0C8DF8160002
:1044C00011F8101C8DF8101012F8102C8DF8112016
:1044D00013F8103C8DF8123005AA032140F2264053
:1044E000FFF768FD002842D104AA032140F22A40C8
:1044F000FFF760FD00283DD1019BADF814301B0C87
:104500008DF81630009BADF810301B0C8DF8123072
:1045100014F0040F05D037238DF8143027238DF8BD
:10452000103014F0200F05D057238DF81530472395
:104530008DF8113014F4807F05D077238DF8163074
:1045400067238DF8123005AA03214FF48860FFF726
:1045500031FD90B904AA032140F23140FFF72AFD52
:10456000034668B9094A1481184606B010BD4FF0D9
:10457000FF33F9E74FF0FF33F6E74FF0FF33F3E790
:104580004FF0FF33F0E700BFAC9B0008B80A0020F3
:104590002DE9F04385B0414B1B8903F0030250F82D
:1045A0002220019213F0040F01D052420192C3F372
:1045B000C10250F82220029213F0200F01D0524283
:1045C0000292C3F3811250F82220039213F4807FE9
:1045D00001D052420392019AD117DFF8C4C0A2FB66
:1045E0000C230CFB0133910F41EA8301029AD5178A
:1045F000A2FB0C670CFB0577B20F42EA8704039A13
:10460000D717A2FB0C890CFB07994FEA987242EA74
:1046100089050B0E8DF80030C1F307438DF801308A
:10462000C1F307238DF802308DF803106A46042188
:104630004FF47470FFF7BEFC48BB230E8DF80030BA
:10464000C4F307438DF80130C4F307238DF802301B
:104650008DF803406A4604214FF47570FFF7AAFCF9
:10466000C0B92B0E8DF80030C5F307438DF801302B
:10467000C5F307238DF802308DF803506A460421F4
:104680004FF47670FFF796FC05B0BDE8F0834FF06D
:10469000FF30F9E74FF0FF30F6E700BFB80A00201F
:1046A00009E3CA022DE9F04389B004460DF1060082
:1046B000FFF728F9BDF80620510CD3033A4A1289B6
:1046C00002F0030054F82000059012F0040F01D00E
:1046D00040420590C2F3C10054F82000069012F049
:1046E000200F01D040420690C2F3811054F8200000
:1046F000079012F4807F01D040420790059CE71795
:1047000004FB01F203FB0722A4FB03451544A60F9B
:1047100046EA8506069C4FEAE47904FB01F203FBB6
:104720000922A4FB03451544A00F40EA8500079A1F
:10473000D51702FB01F103FB0511A2FB03230B4478
:10474000910F41EA8301330E8DF80830C6F3074319
:104750008DF80930C6F307238DF80A308DF80B6009
:10476000030E8DF80C30C0F307438DF80D30C0F305
:1047700007238DF80E308DF80F000B0E8DF81030DA
:10478000C1F307438DF81130C1F307238DF81230C0
:104790008DF8131002AA0C214FF42570FFF70AFCC4
:1047A00009B0BDE8F08300BFB80A002010B586B09C
:1047B0000446174A07CA06AB03E90700C82C1DD8F0
:1047C000C82393FBF4F3013B9BB21A0A8DF8042033
:1047D0008DF8053001AA022140F21620FFF7EAFB0E
:1047E00078B903AA0C2140F6C120FFF7E3FB03468A
:1047F00050B9084A9481184606B010BD4FF0FF33F7
:10480000F9E74FF0FF33F6E74FF0FF33F3E700BF70
:10481000BC9B0008B80A002010F0070F00F0B3801E
:10482000B1F5C86F00F2B28070B582B00446084698
:10483000FCF762F95D49FCF76BFA05460DF10300E0
:10484000FEF754FF9DF80330023B0E2B00F2A280CE
:10485000DFE803F008A02EA0A0A03EA0A0A0A0A08A
:10486000A0A04E004FF08D412846FCF79DF9FCF7C3
:1048700087FB86B24E492846FCF796F9FCF780FB89
:1048800080B2330A8DF804308DF80560030A8DF884
:1048900006308DF8070014F0010F39D114F0020F23
:1048A0004AD114F0040F5AD10023184602B070BD4B
:1048B0004FF08C412846FCF777F9FCF761FB86B294
:1048C0003C492846FCF770F9FCF75AFB80B2D8E760
:1048D0004FF08B412846FCF767F9FCF751FB86B295
:1048E00035492846FCF760F9FCF74AFB80B2C8E777
:1048F0004FF08A412846FCF757F9FCF741FB86B296
:104900002E492846FCF750F9FCF73AFB80B2B8E78D
:1049100001AA02214FF4EA70FFF74CFB00283CD1BA
:104920000DF1060202214FF49270FFF743FB0028BD
:10493000B4D04FF0FF33B8E701AA02214FF4EC7076
:10494000FFF738FB60BB0DF1060202214FF49470B3
:10495000FFF730FB0028A4D04FF0FF33A5E701AAF2
:1049600002214FF4EE70FFF725FBE0B90DF10602CE
:1049700002214FF49670FFF71DFB0346002894D0E8
:104980004FF0FF3391E74FF0FF3301E04FF0FF337B
:10499000184670474FF0FF3387E74FF0FF3384E747
:1049A0004FF0FF3381E74FF0FF337EE700004843CD
:1049B000000040460000C045000040450000C044E3
:1049C00000B583B000238DF8073010F0010F02D03E
:1049D00030238DF8073010F0020F05D09DF8073016
:1049E00043F00C038DF8073010F0040F05D09DF84C
:1049F000073043F003038DF807300DF10702012162
:104A00004FF4A470FFF7D6FA03B05DF804FB00B5CD
:104A100083B020B10346042802D9042300E0012317
:104A2000013B02AA02F8013D012140F24F10FFF7BD
:104A3000C1FA03B05DF804FB00B583B0084BA3FBDB
:104A400000308008030A8DF804308DF8050001AAB3
:104A500002214FF4EF70FFF7ADFA03B05DF804FBED
:104A6000CDCCCCCC00B583B0084BA3FB0030800884
:104A7000030A8DF804308DF8050001AA02214FF4D5
:104A8000ED70FFF797FA03B05DF804FBCDCCCCCC0A
:104A900000B583B00E4B83FB0023C017C0EBA310FF
:104AA00001FB00F10B0E8DF80430C1F307438DF8C4
:104AB0000530C1F307238DF806308DF8071001AAE1
:104AC00004214FF4AE70FFF775FA03B05DF804FBF4
:104AD000D34D621000B583B0084BA3FB00308008B3
:104AE000030A8DF804308DF8050001AA02214FF465
:104AF000AD70FFF75FFA03B05DF804FBCDCCCCCC12
:104B000000B583B0084BA3FB00308008030A8DF882
:104B100004308DF8050001AA02214FF4AC70FFF7B4
:104B200049FA03B05DF804FBCDCCCCCC00B585B020
:104B300068B901AB0C4A07CA03C31A7001AA09215C
:104B40004FF49760FFF736FA05B05DF804FB01AB50
:104B5000064A07CA03C31A7001AA09214FF49760D5
:104B6000FFF728FAF0E700BFD49B0008C89B0008B5
:104B700000B583B0B0B1C0238DF80430C2238DF8E6
:104B80000530C4238DF80630C6238DF8073001AAFE
:104B9000042140F69820FFF70DFAFEF747FC03B01A
:104BA0005DF804FB4FF08B330193F0E700B583B061
:104BB000B0B120238DF8043028238DF80530302340
:104BC0008DF8063038238DF8073001AA042140F60D
:104BD0009E20FFF7EFF9FEF729FC03B05DF804FB18
:104BE0004FF0A3330193F0E72DE9F04184B0044680
:104BF00002238DF80430CA238DF80530E3238DF8A5
:104C0000063009238DF8073001AA04216820FFF738
:104C1000D1F9A3238DF8043014F0400800F0B080DF
:104C2000C0238DF80530C8238DF80630C2238DF8D7
:104C3000073014F4C07500F0AB80C4238DF8083041
:104C4000CC238DF80930C6238DF80A30A3238DF8C4
:104C50000B308DF80C308DF80D3001AA0A2140F68A
:104C6000A720FFF7A7F914F0030700F0998020238D
:104C70008DF8043001AA012140F6B620FFF79AF919
:104C800014F0200F00F090800120FFF74FFFADB12E
:104C900014F4807F00F08C80B2238DF804308B23D5
:104CA0008DF80530B6238DF806309B238DF807303C
:104CB00001AA042140F6A220FFF77CF914F0010FAD
:104CC00000F0838004AAF82302F80C3D01214FF480
:104CD0000B60FFF76FF9FA210720FFF79DFD072012
:104CE000FFF76EFE0120FFF792FE6420FFF7A4FE9F
:104CF0004FF4FA70FFF7B6FEC8213F48FFF7C8FE31
:104D00002820FFF7E7FE0A20FFF7FAFE14F0020F53
:104D100065D0D9238DF8043001AA012140F23D70FD
:104D2000FFF748F914F0040F5DD00120FFF720FFD2
:104D300014F0100F5BD00120FFF738FF2F4E44F026
:104D400008037381FEF772FB0023B373B8F1000F01
:104D500001D00622B2731DB1284A937B06339373A8
:104D600014F0140F03D0254A937B103393731FB1B3
:104D7000224A937B04339373002004B0BDE8F08192
:104D8000A3238DF805308DF806308DF8073050E7F5
:104D9000A3238DF808308DF809308DF80A3055E7D7
:104DA000D8238DF8043065E70020FFF7BFFE6EE7DB
:104DB000B0238DF8043080238DF80530B4238DF8AE
:104DC000063090238DF8073072E704AAD82302F842
:104DD0000C3D01214FF40B60FFF7ECF896E7D82368
:104DE0008DF8043098E70020FFF7C2FEA0E700200E
:104DF000FFF7DCFEA2E700BF09E3CA02B80A002001
:104E00002DE9F0410446884615461E4600F07CF91F
:104E1000600000F0FE0000F007FA00F0C1F988B968
:104E20000746404600F000FA00F0BAF93C46AC42B2
:104E300012D2305D00F0F8F900F0B2F940B9013457
:104E4000E4B2F4E700F074F901273846BDE8F081D8
:104E500000F06EF90127F8E700F06AF9F5E738B5D8
:104E600005460C4600F050F9D02000F0DDF900F0C6
:104E700097F970B9284600F0D7F900F091F920466B
:104E800000F0D2F900F08CF9044638B900F050F97E
:104E900002E000F04DF90124204638BD00F048F949
:104EA0000124F9E708B5C10001F0F8011B20FFF764
:104EB000D6FF08BD08B5C10001F0F8011C20FFF7BE
:104EC000CEFF08BD08B5BB280BD861280ED829280D
:104ED0000ED813280ED8092801D8062102E0052192
:104EE00000E001211A20FFF7BAFF08BD0221F9E70F
:104EF0000321F7E70421F5E710B5B0F57A7F04D870
:104F00000446032803D8042401E04FF47A744FF4D4
:104F10007A7191FBF4F1C9B20139C9B21920FFF7D6
:104F20009EFF6008FFF7CEFF10BD10B5044600F0ED
:104F3000EBF8D02000F078F900F032F9204600F0CC
:104F400073F900F02DF900F0DFF8D12000F06CF9D2
:104F500000F026F9002000F08DF9044600F0E8F892
:104F6000204610BD08B500F0F7F880216B20FFF750
:104F700076FF6420FDF7B0FE00216B20FFF76FFF86
:104F80000320FFF78FFF0020FFF794FF3220FFF789
:104F9000B3FF00213820FFF762FF00216A20FFF7EE
:104FA0005EFF00212320FFF75AFF80213720FFF703
:104FB00056FF7520FFF7B9FF682801D0012008BD12
:104FC00001216B20FFF74BFF00216C20FFF747FF0B
:104FD0003220FFF791FF0020F1E770B50C4615462F
:104FE0001E46012D09D02046FFF79FFF06F8010B52
:104FF000013DEDB20134E4B2F3E72046FFF795FF3F
:105000003070002070BD000000B583B001AB0222FB
:1050100041216820FFF7E1FF9DF804301B021BB21D
:105020009DF805001843FBF7E5F900220C4BFBF750
:1050300075FB09A3D3E90023FBF790F8FBF756FCB7
:105040000849FBF7B1FDFBF775FF00B203B05DF84F
:1050500004FB00BFAFF30080A4703D0AD743424079
:10506000004075400000C84270B582B006460D464B
:1050700014466B46062243216820FFF7AEFF024626
:10508000A0B99DF800109DF8013043EA0123338058
:105090009DF802109DF8033043EA01232B809DF810
:1050A00004109DF8053043EA01232380104602B026
:1050B00070BD70B582B006460D4614466B4606229A
:1050C0003B216820FFF789FF0246A0B99DF8001038
:1050D0009DF8013043EA012333809DF802109DF8CA
:1050E000033043EA01232B809DF804109DF805301E
:1050F00043EA01232380104602B070BD08B50320A7
:10510000FDF7CCFD08BD000010B5084C80232361DD
:1051100040232361FFF7F2FF4FF400032361FFF701
:10512000EDFF4FF48003236110BD00BF000C014070
:1051300010B5084C4FF4800323614FF40003236142
:10514000FFF7DCFF4023236180232361FFF7D6FFB5
:1051500010BD00BF000C014000B587B00E4B9A692E
:1051600042F008029A619B6903F008030193019BD6
:10517000C023029311230393032305930123049374
:1051800002A90648FCF78EFEFFF7D2FF3220FCF79B
:1051900075FC07B05DF804FB00100240000C0140F4
:1051A00010B50E4C80232361FFF7A8FF4023236135
:1051B000FFF7A4FF0023094A926812F0800F07D07E
:1051C0000133DBB2FA2BF6D9FFF7B2FF012004E07E
:1051D000024B4FF480021A61002010BD000C014008
:1051E00038B5074C4FF4800525614FF40003236167
:1051F000FFF784FF40232361FFF780FF256138BD5F
:10520000000C014038B5074C4FF480052561802320
:105210002361FFF773FF40232361FFF76FFF2561D1
:1052200038BD00BF000C014070B50646104B4FF46E
:1052300080021A61002410E00D4B80221A61760072
:10524000F6B20B4D40232B61FFF758FF4FF480035C
:105250002B61FFF753FF0134E4B2072C06D8F309A2
:10526000EAD1034B4FF400021A61E8E770BD00BFBA
:10527000000C0140F8B507460024254603E0FFF77F
:105280003DFF0135EDB2072D10D80C4E4FF48003D1
:105290003361FFF733FF402333616400E4B2B36846
:1052A00013F0800FEBD00134E4B2E8E71FB1FFF751
:1052B00097FF2046F8BDFFF7A5FFFAE7000C014075
:1052C00010B50446FFF720FF04F0FE00FFF7ACFF27
:1052D000FFF766FF044648B901224FF40051074822
:1052E000FCF7CCFEFFF724FF204610BD00224FF450
:1052F00000510248FCF7C2FEF4E700BF0010014075
:10530000014B1868704700BF4800002070B50D4E73
:105310000D4D761BB61006D00024013455F8043B21
:105320009847A642F9D1094E094D04F027FC761B97
:10533000B61006D00024013455F8043B9847A64225
:10534000F9D170BD80AB000880AB000888AB0008C5
:1053500080AB0008F0B4860743D0541E002A3ED02C
:10536000CAB2034602E014F1FF3438D303F8012B2C
:105370009D07F8D1032C2BD9CDB245EA05250F2C7A
:1053800045EA054516D9A4F110073F0903F12006A7
:1053900006EB071603F1100242E9045542E90255F3
:1053A0001032B242F8D104F00F040137032C03EBA2
:1053B00007130DD91E462246043A032A46F8045B19
:1053C000FAD8221F22F003020432134404F003042B
:1053D0002CB1C9B21C4403F8011B9C42FBD1F0BCA8
:1053E000704714460346C5E70FB410B5074B82B0AB
:1053F00004AC54F8042B186823468168019400F02B
:105400008BF802B0BDE8104004B07047480000209F
:1054100070B5054688B008460C4600F04FF80122EA
:1054200002262149AB6B05900792104404AA04940C
:105430000390AC680296069101921BB3616EB4F9B9
:105440000C30CE079AB201D4900525D5910406D42C
:10545000626E43F4005322F40052A3816266284630
:1054600001AA214602F008FE636E00280CBF0A253F
:105470004FF0FF35DA0702D4A3899B0506D52846ED
:1054800008B070BD284602F05DFCD7E7A06D02F0C1
:10549000A9FF284608B070BDA06D02F0A1FFB4F9C5
:1054A0000C309AB2D2E700BF409C0008024B014684
:1054B0001868FFF7ADBF00BF4800002020F00301CF
:1054C00010F00300C0F1000051F8043B00F1040C9F
:1054D0004FEACC0C6FF000021CBF22FA0CF213430F
:1054E0004FF0010C4CEA0C2C4CEA0C4CA3EB0C02D8
:1054F00022EA030212EACC1204BF51F8043B043042
:10550000F4D0C2F1000102EA0102B2FA82F2C2F161
:105510001F0200EBD20070472DE9F04FC1B01C46CE
:105520008846924605460A9002F048FF03680D94AB
:1055300018461393FFF7C2FF11901DB1AB6B002B00
:1055400000F0FE80D8F86410B8F90C20CD0793B2B3
:1055500002D4980540F13E8199040AD4D8F8641029
:1055600042F4005321F40051A8F80C30C8F864103C
:105570009BB21A0740F1AE80D8F81020002A00F044
:10558000A98003F01A020A2A00F0C0800023CDE9A6
:105590001733CDE91533CDE924330DF1C009149348
:1055A000109312930993CDF88C909AF80030002B49
:1055B00000F0FB80252B544602D11CE0252B03D0A4
:1055C00014F8013F002BF9D1A4EB0A057DB1DDE908
:1055D000243201332A44072BC9E900A5CDE924323E
:1055E00000F3DA8009F10809099B2B440993237819
:1055F000002B00F0DA8000231A468DF86F30194630
:105600000B939B464FF0FF33667804F1010A089331
:105610000AF1010AA6F12003582B00F2E483DFE827
:1056200013F0BB02E203E203C302E203E203E2037C
:10563000E203E203E2031B032A03E2032F03320324
:10564000E2034D02E100E100E100E100E100E100E0
:10565000E100E100E100E203E203E203E203E2032E
:10566000E203E203E203E203E2034C036403E20326
:105670006403E203E203E203E203B803E203E203AA
:105680009300E203E203E203E203E203A700E20382
:10569000E2035202E203E203E203E203E203E20373
:1056A000E203E203E203E203A702F00064036403FF
:1056B00064033B02F000E203E2034002E2030A0358
:1056C0009500A303B303E203E702E203A900E203A8
:1056D000E203C80241460A9801F00EFA78B1D8F800
:1056E0006430DB0704D4B8F80C309F0540F17383B5
:1056F0004FF0FF330993099841B0BDE8F08FB8F837
:105700000C3003F01A020A2A7FF440AFB8F90E20D9
:10571000002AFFF63BAFD8F86420D60705D49D05D4
:1057200003D4D8F8580002F05DFE234652464146A5
:105730000A9801F09DF90990099841B0BDE8F08FF1
:105740000A9802F0FFFAFDE64BF0100B1BF0200365
:1057500040F024830D9A52F8044B0D921BF0100276
:1057600004D11BF040031CBF1346A4B20025CBE1BB
:105770004BF0100B1BF0200F40F01B830D9B1BF018
:10578000100F53F8044B0D9303D11BF0400F18BFBB
:10579000A4B200250123B7E123AA41460A9803F0E9
:1057A0003DFF40B90DF1C0091EE7259B002B41F0DC
:1057B000418000232493D8F86420B8F80C30D10736
:1057C00002D49A0540F100835B0691D4099841B058
:1057D000BDE8F08FD8F8580002F002FEB8F90C20AE
:1057E00093B2B9E60020A6F130031AF8016B00EB82
:1057F000800003EB4000A6F13003092BF5D90B9094
:1058000008E7002A41F01D811BF0200F00F05E82A6
:105810000D9C073424F0070303F108020D92D3E92D
:105820000045002C75F10003C0F20D859DF86F70E6
:10583000089B013300F06C8401232BF08002069258
:1058400054EA050240F06981089A002A40F0AA85CE
:10585000002B40F0C1841BF001030C9300F0C485C1
:10586000302340AA02F8413D0E92089B0C9A9342C5
:10587000B8BF1346079300230F9317B1079B01335B
:105880000793069B13F0020302D0079A0232079295
:10589000069A259C12F0840B42D10B9A0799551A4F
:1058A000002D3DDD102D249A2CDD48462146A946C9
:1058B00010271D460A9C034606E0A9F11009B9F11C
:1058C000100F03F1080318DD0132C5481031072A13
:1058D000CDE92421C3E90007EFDD23AA4146204694
:1058E00003F09CFE00287FF466AFDDE92421A9F1D6
:1058F0001009B9F1100F30ABE6DC18460C462B4608
:105900004D4681460132B6492C44072ACDE924246C
:10591000C9E9001500F3B3849DF86F7009F1080917
:1059200077B10120249A044402440DF16F01072A43
:10593000CDE92424C9E9001000F3D08309F1080956
:105940006BB10221249B0C4401331CAA072BCDE927
:105950002434C9E9002100F3CF8309F10809BBF120
:10596000800F00F0B282089B0C9A9D1A002D34DD46
:10597000102D249A40F3F685DFF870B223461027E5
:105980005C46DDF828B004E0103D102D09F108094F
:1059900016DD01321033072ACDE92423C9E9004777
:1059A000F2DD23AA4146584603F038FE00287FF472
:1059B00002AFDDE92423103D102D0DF1C009E8DC14
:1059C000A3461C4601322C44072ACDE92424C9E908
:1059D00000B500F3AF8309F10809069BDD0500F16E
:1059E0001882249B0C9A01330E991444072B25949A
:1059F000C9E90012249300F3658309F10809069BA5
:105A0000580739D50B9B079A9D1A002D34DD102DB0
:105A1000249B1FDD10260A9F04E0103D102D09F184
:105A2000080917DD01336E4A1034072BCDE9243401
:105A3000C9E90026F1DD23AA4146384603F0EEFD10
:105A400000287FF4B8AEDDE92434103D102D0DF1AF
:105A5000C009E7DC0133624A2C44072BCDE924342A
:105A6000C9E9002508DD23AA41460A9803F0D6FDBE
:105A700000287FF4A0AE259C099B0B9A07998A42C7
:105A8000ACBF9B185B180993002C40F05A8200238E
:105A90000DF1C009249388E54BF0400B9AF80060A3
:105AA000B6E59AF800606C2E03BF9AF801604BF0DF
:105AB000200B0AF1010A4BF0100BA9E54BF0800B0B
:105AC0009AF80060A4E5002A40F0BF87454B1BF020
:105AD000200F179375D00D9C073424F0070303F1B2
